:100000000C94BC020C9403030C9403030C940303A0
:100010000C9403030C9403030C9403030C94030348
:100020000C9403030C9403030C94A8110C94641116
:100030000C9422220C9403030C9403030C940303EA
:100040000C9403030C9403030C9403030C94030318
:100050000C9403030C947F120C9403030C9403037D
:100060000C9403030C9403030C9403030C940303F8
:100070000C9403030C9403030C9403030C940303E8
:100080000C9403030C9403030C9403030C940303D8
:100090000C9403030C9403030C9403030C940303C8
:1000A0000C9403030C9403030C94030305010980CF
:1000B000A101850319012AB700150126B700950192
:1000C00075108100C0050C0901A101850419012AE0
:1000D000A002150126A002950175108100C00660DE
:1000E000FF0961A1010962150026FF00952075082E
:1000F00081020963150026FF00952075089102C052
:1001000005010906A101050719E029E715002501E8
:10011000950875018102950175088101050719008F
:1001200029FF150026FF00950675088100050819AE
:10013000012905950575019102950175039101C08D
:1001400000000000000000000000000000000000AF
:10015000000000000000000000000000000000009F
:10016000000000007E0F00D4FFFFFFC700000078F2
:1001700000000000000000002A2B28000000000002
:100180000000000000000000000000290000000046
:100190002C1E3420212224342627252E362D3738B4
:1001A000271E1F202122232425263333362E3738BD
:1001B0001F0405060708090A0B0C0D0E0F1011127B
:1001C000131415161718191A1B1C1D2F3130232D47
:1001D000350405060708090A0B0C0D0E0F10111245
:1001E000131415161718191A1B1C1D2F3130354CF6
:1001F000165C1400070015001A0005002B620400AD
:1002000016000B6817640A00E0001D001B001000B8
:10021000060019000D0009001800130033002A0021
:100220001C001174080012000C0034000E000F00B6
:10023000360037003800287201582C0002580000A0
:100240000000000035003A003B003C003D002F005C
:1002500001003E003F00400041002D00010042002F
:1002600043004400450046003000240025002600DD
:1002700027004C002E00210022002300045701001B
:1002800031001E001F0020000100010001002A00B3
:100290006300000000000000165C53005F00600077
:1002A00061006200010000005C005D685E64BD00EA
:1002B000E000000059005A005B00BE0000004B0047
:1002C00052004E0003534C00A900500051004F0053
:1002D00000000000AA000000000000000000010073
:1002E00001000000010000000000000029001400CF
:1002F0001A00080015001E002B62040016000700FB
:1003000009001F0039611D001B00060019002000B4
:1003100021002D000C002E0003532A0022000D00A6
:100320000E000F00520028002300100005005000AE
:1003300051004F000A002C001000000000000000D7
:1003400000AF00DA0281FFD9F1DB20A4A62EAF00B6
:10035000A0C000A1C800AED580A81FD300408D1456
:10036000200000AEFD377A585A000004E6D6B446A5
:100370000200210116000000742FE5A3E003E00154
:100380001D5D003D8889C65436C3174FE4E592626F
:10039000E106D87A0323BD3E6B34D9DD610DA8C5D3
:1003A000B1872ED97AE23A9D21F26930F84A842643
:1003B000B023A54D6B3011CD5BFC90507A8DAA48CF
:1003C00006E91D9738C2BE8880BE7D8FF797A28848
:1003D000627E69AFA2F9B8332261B9705B5B46BC3B
:1003E000FDB7019685DE1C26C80A4CF11D39A846CA
:1003F000D00D1F2A3B4FE1C28FCCF71A5B8F02A8AA
:100400002C7783841CE0888C2ECB1DD92055A60820
:10041000D7D3687A911D3172F83873DEC283D784DE
:100420009A695DD7CC230F6AD197E84C2C21068BB3
:10043000FFC0561F63B5405F8AC19C5DB1EC7894E4
:10044000EF0046B18AD5E88ED00B752DEFC0814FF5
:10045000B9F4C491E3BD786C4615A4E6EEFB52DC1A
:10046000028D8F6DB8BA5FF5E7D8B610444AFB0A23
:10047000E7F34192F010E8BCBDB1302C196A219924
:1004800093E15B80ED34523F848E1204A20F8FFA09
:10049000D427D5E077E3B1D604A01279B8391A0091
:1004A00000000000CE18B2F02F0BBD870001B9028A
:1004B000E1070000D8F5DCEFB1C467FB02000000E3
:1004C0000004595A09025B00030100A0FA09040064
:1004D0000001030101000921110100012240000770
:1004E00005810308000A0904010002030000000955
:1004F00021110100012222000705820320000107CB
:1005000005030320000109040200010300000009A3
:1005100021110100012232000705840320000A1284
:1005200001100100000008EDFE105F010001020350
:10053000011C037600690061006C003A0066003619
:1005400000340063003200620033006300000014D6
:1005500003720065007600690075006E0067003365
:1005600000390000000C036700740069007000731C
:10057000000000040309040011241FBECFEFDAE0DD
:10058000DEBFCDBF04B603FE27C08091C7049091A3
:10059000C804A091C904B091CA048730904BA74009
:1005A000B04BD1F41092C7041092C8041092C90441
:1005B0001092CA0414BE84B7877F84BF0FB6F89424
:1005C000A89580916000886180936000109260001F
:1005D0000FBEE0E0F8E3099511E0A0E0B1E0E0E84B
:1005E000F7E402C005900D92A23EB107D9F724E0CE
:1005F000A2EEB1E001C01D92A73CB207E1F70E9454
:100600003F1C0C9491230C940000E8EDF0E08081F5
:100610008E7F80831092E2001092DA001092E10047
:10062000A0EEB0E08C9181608C9380818F77808385
:1006300019BCA7EDB0E08C918E7F8C9380818F7E6A
:1006400080831092A90408952091E4003091E50080
:1006500095E6A9012091EC00822F817020FF06C051
:100660008091E80080FF06C080E008952091E800B6
:1006700022FD1AC08091BF04882389F0853089F05B
:100680008091EB0085FD0FC02091E4003091E500E2
:1006900042175307F9F29150E1F684E0089582E0A1
:1006A000089583E0089581E00895EF92FF920F93FB
:1006B0001F93CF937C018B010E942403C82F8111CB
:1006C00017C08091E80085FD0BC08091E8008E770F
:1006D0008093E8000E942403882399F3C82F08C060
:1006E000F70181917F018093F1000150110949F7D1
:1006F0008C2FCF911F910F91FF90EF900895CF9382
:10070000FC018091BF04843001F5C091E900CF70F5
:100710002091EC00922F917020FD90E8C92B82E08F
:100720008093E9008091E80080FF0CC050E040E039
:1007300060E270E0CF010E9455038091E8008E775F
:100740008093E800CF70C093E900CF910895809125
:10075000B70487FF13C08091E80082FF06C0809134
:10076000E8008B778093E80004C08091BF0481117A
:10077000F2CF08958091BF048823D9F38091E800D7
:1007800080FFF8CF8091E8008E77ECCF982F909380
:10079000E900242F762F50E0891731F07091EC009A
:1007A0002091ED005091F00021FD07C09F5F973030
:1007B00071F78093E90081E008953091EB003E7F6E
:1007C0003093EB003091ED003D7F3093ED003091A0
:1007D000EB0031603093EB007093EC002093ED0060
:1007E0005093F0002091EE0027FDE0CF80E00895C7
:1007F000CF92DF92EF92FF920F931F93CF93DF93ED
:10080000C8EDD0E088818F7E8883E7EDF0E08081BD
:100810008160808384E082BF81E08093A904888125
:100820008E7F888302EE10E0F80110821092DA00C9
:1008300081EEC82ED12CF601108288818F778883B3
:1008400088818068888388818F7D888319BC109215
:10085000BF041092B6041092B5041092B40490EE46
:10086000E92EF12CF70180818B7F80838881816064
:10087000888342E060E080E00E94C603F601808148
:100880008E7F8083F8018081816080838081886091
:100890008083F70180818E7F808388818061888357
:1008A000DF91CF911F910F91FF90EF90DF90CF904C
:1008B0000895FC018091BD049091BE0486179707AE
:1008C000A0F06115710529F49091E8009E7790934E
:1008D000E80090E06115710551F4911108C0809114
:1008E000E80082FF34C080E00895BC01F2CF80911F
:1008F000BF048823C1F18530C1F18091E80083FDF8
:1009000030C08091E80082FDEACF8091E80080FF4E
:10091000E1CF8091F3002091F200382F611571052D
:1009200019F02830310558F091E02830310509F0F0
:1009300090E02091E8002E772093E800CBCF8191C2
:100940008093F100615071092F5F3F4FE7CF809195
:10095000BF04882341F0853041F08091E80083FF97
:10096000BECF81E0089582E0089583E0089580E09D
:10097000089508958091AB04089587E797E79093D1
:1009800001088093000888E19AE00FB6F894A895D2
:10099000809360000FBE90936000FFCF9C014FB723
:1009A000F8948091560290915702A0915802B0910C
:1009B00059024FBF821B930B08952FB7F894609193
:1009C00056027091570280915802909159022FBFA0
:1009D00008958091510281111092510208958095DD
:1009E0009091500298239093500208958091500264
:1009F00090914F02892B90914E02892B8093E401B4
:100A000090915102992391F0892B8093E40120E089
:100A100086EE91E0FC013191CF0131112F5FF1E0C1
:100A20008C3E9F07B9F721110E94E904E09163020F
:100A3000F0916402309731F00280F381E02D84EE72
:100A400091E009940895E6EEF1E09191891303C0D5
:100A5000DF0111971C9291E0EC3EF907B1F7089580
:100A6000A6EEB1E0EFEF90E02D91821751F0EF3F4D
:100A700019F4211101C0E92F9F5F9630A9F7EF3FCC
:100A800009F408950E2E000CFF0BEC51FE4F8283EB
:100A90000895E92FEE0FE90FEE0F8E0F982F977044
:100AA00086958695869525E0829FF0011124E15D6B
:100AB000FD4F50E040E080E0219130E0092E02C07F
:100AC000369527950A94E2F721703327042E01C04A
:100AD000220F0A94EAF7822B4F5F5F4F4530510592
:100AE00059F70895E92FEE0FE90FEE0F8E0F982FAB
:100AF000977041E001C0440F9A95EAF78695869574
:100B0000869595E0899FF0011124E15DFD4F30E06D
:100B100020E070E05191DF011197CB01022E02C05D
:100B2000969587950A94E2F78170819585278423AD
:100B300085278C932F5F3F4F2530310559F7089556
:100B400080912E029091FD01981301C008958F5F4E
:100B50008770FACF882341F0809590914F028923C6
:100B600080934F020C94F6040895882339F09091F5
:100B70004F02982B90934F020C94F604089588230B
:100B800021F00E94EF040C94F6040895882339F0B4
:100B900090915002982B909350020C94F604089573
:100BA0002091F1013091F2012817390771F09093EB
:100BB000F2018093F101E0916302F09164023097B9
:100BC00021F00084F185E02D099408952091EF0132
:100BD0003091F0012817390771F09093F00180935C
:100BE000EF01E0916302F0916402309721F00680FA
:100BF000F781E02D0994089590E080E00E94E605D9
:100C000090E080E00E94D00510924F0210924E02B8
:100C10000C94F6046093C3047093C4048093C504D9
:100C20009093C6040C94FC050F931F936091C3042A
:100C30007091C4048091C5049091C6048B019C01FD
:100C400006701127222733270630110521053105AB
:100C500029F468601F910F910C940A06677FFACF00
:100C60000F931F9341E050E060E070E004C0440F38
:100C7000551F661F771F8A95D2F7CB01BA01609581
:100C80007095809590950091C3041091C4042091B3
:100C9000C5043091C60460237123822393231F91DE
:100CA0000F910C940A0690914D02809589238093B0
:100CB0004D02282F277071F4282F082E000C330BBB
:100CC0009217130639F08595859585950E94300613
:100CD00010924D0208950F931F9341E050E060E0A1
:100CE00070E004C0440F551F661F771F8A95D2F726
:100CF0008091C3049091C404A091C504B091C6042E
:100D00008A019B01082B192B2A2B3B2BC901B80107
:100D10001F910F910C940A06609352027093530234
:100D200080935402909355020C94FC05E091630269
:100D3000F0916402309721F00190F081E02D099448
:100D400080E00895882309F44BC0823871F40E9432
:100D5000960681FF45C089E30E9430050E94F60493
:100D600089E30E9423050C94F604833859F40E9409
:100D7000960680FF35C083E50E9430050E94F60488
:100D800083E5EFCF843859F40E94960682FF28C08D
:100D900087E40E9430050E94F60487E4E2CF9CEFCE
:100DA000980F913AF0F290E2980F983050F48770D3
:100DB00091E001C0990F8A95EAF7892F0E94EF040C
:100DC000D2CF9BE5980F933020F490E080E00C9414
:100DD000E605885A873120F490E080E00C94D00535
:100DE0000895CF93DF93EC0181E0898B80915002CD
:100DF0009F81892B8093500280914F029885892B87
:100E000080934F020E94F604EA81FB81309739F00B
:100E10006C897D89CE010696DF91CF910994DF918F
:100E2000CF910895EF92FF920F931F93CF93DF938B
:100E3000EC018A85811139C0EB80FC8087E5F81AC6
:100E400026E12E9DC0012F9D900D1124DC01AC5F89
:100E5000BE4F1496ED91FC911597309731F0549652
:100E60006D917C91865F9E4F099586E18E9D8001F4
:100E70008F9D100D11240C5F1E4FF80187810E9479
:100E8000EF04F8018085982F909580914F02892377
:100E900080934F020E94F604188219861B861E82D8
:100EA0001D821092F4011092F301DF91CF911F91F6
:100EB0000F91FF90EF900895F894E82FE295EF706E
:100EC000F0E031A1282F2F7081E090E001C0880F61
:100ED0002A95EAF7982F9095932391A392A1892BB5
:100EE00082A3789408959091610292FF06C0282F02
:100EF00028712830F9F4877F846093FF06C0282F7B
:100F000028712831F1F4877E84612091620220FFEC
:100F100006C0382F38713830D9F4877F816021FFBF
:100F200006C0282F28712831D1F4877E816194FD75
:100F3000877E0895282F24712430F9F68B7F8860EE
:100F4000DCCF282F2471243101F78B7E8861DDCF1F
:100F5000382F3171313019F78E7F8860E0CF282F1C
:100F60002171213121F78E7E8861E1CFCF93DF930C
:100F70009C013A9521153F4168F5EC01CC27D170D1
:100F8000DC01AA27B270AC01442754709C012227CF
:100F9000387094FF11C080E1CD2B09F480E0AB2BB9
:100FA00009F08062452B09F08064232B09F08068EA
:100FB000FB01DF91CF91099481E0CD2B09F480E012
:100FC000AB2B09F08260452B09F08460232B81F361
:100FD0008860EECFDF91CF910895CF93DF93EC013E
:100FE0000E94A206CE01805E9109089720F06AEA6D
:100FF00075E0209711F46FEB75E0CE01DF91CF9192
:101000000C94B607FC018081813029F4FB018081BA
:1010100091810C94ED07823021F4FB018281938150
:10102000F8CF0895CF92DF92EF92FF920F931F9324
:10103000CF93DF936C017B0164E670E088E70E9448
:101040004F22EC0197FD12C010E000E0F601E00F26
:10105000F11F849164E670E00E94AB22EC01892BC1
:1010600029F40F5F1F4F0E151F0581F70E942E23D5
:10107000CE01DF91CF911F910F91FF90EF90DF9004
:10108000CF900895CF93C0918F04809190048823CE
:10109000D1F00E94DD04605A75418F4F9F4F6093DD
:1010A0008B0470938C0480938D0490938E04C111F3
:1010B00008C062E070E080E493E00E941208892B8F
:1010C00029F0C0918F048C2FCF91089581E08093F7
:1010D0008F04F7CFCF93DF9300D00F92CDB7DEB759
:1010E0009091BF04943011F589837B836A83909338
:1010F000E9008FEF9091E800815095FD06C095EDD5
:101100009A95F1F700008111F5CF8091E80085FFF5
:101110000DC050E040E063E070E0CE0101960E9417
:1011200055038091E8008E778093E8000F900F9030
:101130000F90DF91CF910895BC0184E00C946A0870
:10114000BC0183E00C946A08CF93DF93EC0181E04B
:101150008093E9008FEF9091E800815095FD06C0E3
:1011600095ED9A95F1F700008111F5CF8091E80097
:1011700085FF14C050E040E068E070E0CE010E94BE
:1011800055038091E8008E778093E80088E0FE01A7
:10119000ACEAB4E001900D928A95E1F7DF91CF912E
:1011A0000895CF9384E090E00E944F23C82F81E2FE
:1011B00090E00E944F23982F8C2FCF9108950F938A
:1011C0001F93CF93DF93843030F5673020F546309E
:1011D00010F5C42FD0E0CC0FDD1F2CE0629FC00DB6
:1011E000D11D112434E5839FC00DD11D1124CE01E2
:1011F00086960E944F23082F10E0102F0027CE0163
:1012000087960E944F239801282BC901DF91CF9127
:101210001F910F91089590E080E0F8CF462F209124
:10122000A7043091A804232B49F4843038F4773094
:1012300028F4663018F4672F0C94DF0890E080E003
:101240000895CF93DF930E940E09EC018238910537
:10125000B1F1E0F58133910509F497C050F5893279
:10126000910509F48BC08A9709F496C0C11520E551
:10127000D20708F0C0C0C11530E4D30708F035C16B
:10128000C03ED10508F09DC0C03CD10508F01BC18F
:10129000C83AD10508F087C0C53AD10508F00BC19E
:1012A000C130D10509F12097F9F0C430D105E0F43F
:1012B00040C08533910509F45AC0C997B9F68091A9
:1012C0006102837089F0C0EED0E00EC0833E9105CC
:1012D00099F170F4803E910501F1823E910531F65D
:1012E0008091610282FD21C0CE01DF91CF910895EE
:1012F000863E910561F1873E910571F1843E91052D
:1013000009F0B4CF8091620281FFEECF809161023B
:10131000C7EED0E084FD0DC0E7CF8091610280FD73
:101320002BC19091620290FFDFCFC3EED0E084FF2B
:10133000DBCFD0E0C0E0D8CF8091610282FD1FC139
:101340009091620290FDBFCF84FFCECFF2CF80910B
:10135000610283FDDDCFC8CF8091610283FD12C1A0
:101360009091620291FFF0CFC4EED0E0BDCF8091AA
:10137000610285FFB9CFC9E2D0E0B6CF80916102AA
:1013800085FFB2CFC5E3D0E0AFCF8091610286FF89
:10139000ABCFCAE2D0E0A8CF8091610286FFA4CF94
:1013A000C1E3D0E0A1CFCF3BD10518F6C85AD0E0B9
:1013B000CC0FDD1FC057DE4F0990D881C02DD464FB
:1013C00093CFC11540E2D40750F4C11581E0D8078E
:1013D00008F08ACFC83ED10508F486CFAACFC11540
:1013E00090E3D90708F077C0FE01FF70EE0FFF1FF2
:1013F000E051FE4F6DC0C11525E5D20758F5C11566
:1014000034E5D30708F0A0C0C11542E5D40750F475
:10141000C11581E5D80708F46BC0DC2FCC27C16F5C
:10142000D06A62CF9C2F969596959E0123703327A4
:10143000C115D34508F079C0C1E0D0E002C0CC0F9F
:10144000DD1F2A95E2F720E2929FC0011124C82BEC
:10145000D92B69C0C11589E5D807A8F4C11598E54D
:10146000D90708F076C0C11526E5D20708F061CF8C
:101470008C2F0E947307C82FD0E0DC2FCC27CC27FD
:10148000DF71D06231CFC1153AE5D30708F466C0E9
:10149000CE0190568115904208F04BCF8D2F8F7161
:1014A0000E94730790E0982F882788279F719C01DE
:1014B0002C2BE901E6CFC55AD0E0C357DE4FC881D7
:1014C000D0E0D06411CFFE01EE0FFF1FE059FF4FB7
:1014D000C591D49109CFCE019927D3FF03C0EC0168
:1014E000D86C02CFEC01D06CFFCEDF70D06AFCCE9E
:1014F000CE01E4E096958795EA95E1F783702C2F6D
:1015000026952695237090E2299F90011124382B6F
:101510008C2F8370C1E0D0E002C0CC0FDD1F8A9514
:10152000E2F7C22BD32BDC68DFCEC1E0D0E002C0F3
:10153000CC0FDD1F2A95E2F730E2939FC001112402
:10154000C82BD92BDA68D0CEDC2FCC27C46FD06A59
:10155000CBCEDC2FCC27C06FD06AC6CE8C2F8F703D
:101560000E94730734E0D695C7953A95E1F7CF709E
:101570009C2FEC01D069B8CEC9E3D0E0B5CEC2EE65
:10158000D0E0B2CEC6EED0E0AFCEBF92CF92DF9227
:10159000EF92FF920F931F93CF93DF938C01C09034
:1015A000C304D090C404E090C504F090C6048091B8
:1015B000520290915302A0915402B0915502C82A50
:1015C000D92AEA2AFB2ACFE1D0E0BC2ED701C601F6
:1015D0000C2E04C0B695A795979587950A94D2F7D7
:1015E00080FD0EC0219788F7B12C8B2DDF91CF9114
:1015F0001F910F91FF90EF90DF90CF90BF900895D3
:10160000B8018C2F0E942109019761F3EECFCF938F
:10161000DF93EC010E94C50ABE01DF91CF910C94CB
:1016200021090E94070B292F2F7092959F709250CD
:101630009E3078F4E92FF0E0ED56FC4D0C94322307
:10164000803F19F020F4883E20F481E00895843F23
:10165000E1F380E00895883EC0F3813FD1F7F5CFF4
:10166000822F8695869586950895CF93DF93C6E75A
:10167000D1E060E0CE010E945D232196C11584E097
:10168000D807B9F7DF91CF9108950F931F93CF93A8
:10169000DF938901843048F5673038F5463028F506
:1016A00021153C4531F42091A5043091A604232B4B
:1016B000E1F0C42FD0E0CC0FDD1F9CE0699FC00D8E
:1016C000D11D112494E5899FC00DD11D1124612FD6
:1016D000CE0186960E945D23602FCE018796DF9112
:1016E000CF911F910F910C945D23DF91CF911F91AA
:1016F0000F9108958F929F92AF92BF92CF92DF92F7
:10170000EF92FF921F93CF93DF938090A504909068
:10171000A60481E090E09093A6048093A50480EF56
:10172000C82E81E0D82ED0E07601C0E014C0F501CB
:1017300025913491412F6C2F8D2F0E94450B82E013
:10174000A80EB11C1F5F163091F78CE0E80EF11C5B
:10175000CF5FC73019F0570110E0E9CFDF5F84E5B4
:10176000C80ED11CD43001F79092A6048092A50433
:10177000DF91CF911F91FF90EF90DF90CF90BF90BE
:10178000AF909F908F90089510925002E6EEF1E096
:1017900086E0DF011D928A95E9F70C94FC051F9302
:1017A000CF93DF93CDB7DEB7AA970FB6F894DEBF1D
:1017B0000FBECDBF87EB94E02091F100DC012D93AB
:1017C000CD01B4E08F3B9B07B9F78091B80483301B
:1017D00009F471C0B8F4813009F448C0823009F4CA
:1017E000B2C08091E80083FF3AC18091B704909124
:1017F000B8049A3008F033C1E92FF0E0EF55FC4D02
:101800000C9432238A3009F48DC08B3009F470C0F7
:10181000893039F78091B704813219F78091BB0480
:101820009091BC04009711F00297D9F68091E800DE
:10183000877F8093E8008091E80082FF37C0909115
:10184000F3008091F200029729F48091F1008B7FE0
:10185000813021F48091F1008093AB048091E80005
:101860008B778093E8000E94A703BBCF8091B704D9
:10187000813A09F0B6CF8091E800877F8093E80035
:101880008091BB049091BC04892B61F468E08CEAE0
:1018900094E070E00E9459048091E8008B77809377
:1018A000E8009FCF60E090E080E0F3CF8091BF043C
:1018B0008111C1CF96CF8091B704813A09F091CFC1
:1018C0008091BB049091BC04892B09F08ACF809150
:1018D000E800877F8093E8008091E80080FFFCCFDC
:1018E000809184018093F1008091E8008E77B9CFD8
:1018F0008091B704813209F074CF8091BB0490913C
:10190000BC04892B09F06DCF8091E800877F80931C
:10191000E8000E94A7038091B904809384010E948B
:10192000C40B5FCF8091B704813209F05ACF809108
:10193000E800877F8093E8000E94A7038091BA04A3
:101940008093AA044ECF8091B704813A09F049CF21
:101950008091E800877F8093E8008091E80080FF15
:10196000FCCF8091AA04BECF803899F0823809F06C
:1019700076C08091BB048F70873008F070C0809370
:10198000E9008091EB0085FB882780F91092E9003F
:1019900006C08091B4049091B50491118260909139
:1019A000E800977F9093E8008093F1001092F10097
:1019B0008091E8008E77C0C1882309F4ADC18230E0
:1019C00009F04DC08091B9048111B1C18091BB046F
:1019D0008F702FEF280F263008F041C08093E90068
:1019E0002091EB0020FFA3C1933031F48091EB00F4
:1019F00080628093EB009BC19091EB00906190938B
:101A0000EB0021E030E001C0220F8A95EAF7209335
:101A1000EA001092EA008091EB008860EACF811121
:101A20001EC01091B9041F778091E3008078812B4C
:101A30008093E3008091E800877F8093E8000E9414
:101A4000A7038091E80080FFFCCF8091E3008068CD
:101A50008093E30082E0111183E08093BF048091C2
:101A6000E80083FF0AC08091E800877F8093E80048
:101A70008091EB0080628093EB00AA960FB6F894F9
:101A8000DEBF0FBECDBFDF91CF911F91089580586B
:101A9000823028F72091B9043091BA042C3DE3E05C
:101AA0003E07A1F583E08A838AE289834FB7F894E1
:101AB000DE01139620E03EE051E2E32FF0E0509388
:101AC0005700E49120FF03C0E295EF703F5FEF7095
:101AD0008E2F90E0EA30C0F0C7968D939D932F5FD4
:101AE000243159F74FBF8091E800877F8093E80049
:101AF0006AE270E0CE0101960E9459048091E800EC
:101B00008B778093E800ABCFC096E7CF8091BB0482
:101B10009091BC04432F55274330510509F44AC026
:101B200078F54130510509F485C08BE590E0E4EC8F
:101B3000F4E04230510509F092CF2091E800277F70
:101B40002093E8002091BD043091BE0482179307D2
:101B500008F49C0140E02115310509F070C04111E5
:101B60006EC08091E80082FDC9CF8091BF048823B8
:101B700029F2853019F28091E80083FFF2CFBECFC1
:101B80004132510509F447C04232510509F067CF8F
:101B90008330910508F063CFFC01EE0FFF1FEA527E
:101BA000FE4F0190F081E02D8D529E4FDC018C9113
:101BB00090E01DC0332721303105E9F021153105B2
:101BC00079F022303105F9F02330310509F047CFA3
:101BD000E1E3F5E0E4918E2F90E0E1E3F5E007C06A
:101BE000E3E7F5E0E4918E2F90E0E3E7F5E000977E
:101BF00009F435CFA2CFE5E6F5E0E4918E2F90E031
:101C0000E5E6F5E0F4CFEFE4F5E0E4918E2F90E027
:101C1000EFE4F5E0ECCF8330910508F020CF880F9A
:101C2000991FFC01E452FE4F0190F081E02D89E004
:101C300090E083CF82E190E0EFE1F5E07ECF80910C
:101C4000BF04882309F45ACF853009F457CF809117
:101C5000E80083FD53CF8091E80082FD82CF809120
:101C6000E80080FF78CF9091F3008091F200211579
:101C7000310519F08830910550F041E0089709F0DE
:101C800040E08091E8008E778093E80064CF449133
:101C90004093F1003196215031090196E8CF803808
:101CA00009F0DDCE8091E800877F8093E800809185
:101CB000B6048093F1007CCE8111D1CE1091B9048D
:101CC000123008F0CCCE8091E800877F8093E80046
:101CD0001093B6040E94A703112311F084E005C0FD
:101CE0008091E30087FDFACF81E08093BF0442E05A
:101CF00061EC81E00E94C60342E261EC84E00E9454
:101D0000C60342E261EC82E00E94C60342E260EC5C
:101D100083E00E94C603A3CE8091B904813009F00C
:101D20009ECE81E0933009F080E08093B50410925C
:101D3000E9008091E800877F8093E8000E94A70374
:101D40008ECE0F931F9341E050E060E070E08A0177
:101D50009B0104C0000F111F221F331F8A95D2F769
:101D6000C901B8010E948C061F910F910C94C40BFD
:101D70006BEE7EEF90E080E00E947B2360E082E0EB
:101D800090E00E945D2360E083E090E00E945D238C
:101D90001092520210925302109254021092550265
:101DA00060E084E090E00E945D2360E081E290E0EA
:101DB0000E945D2360E085E090E00E945D2360E08A
:101DC00086E090E00E945D236FEF87E090E00E9444
:101DD0005D2340E050E0BA0188E090E00E946F236C
:101DE00060E08DE090E00E945D2340E050E0BA01A9
:101DF00088E190E00E946F2360E087E190E00E941C
:101E00005D2340E050E0BA018CE190E00E946F2336
:101E100060E080E290E00E945D2340E050E0BA0183
:101E200088E190E00E946F2340E050E0BA018FE02B
:101E300090E00E946F2340E050E0BA0183E190E01F
:101E40000C946F238B3109F474C040F58B3071F022
:101E500078F4863009F456C020F4853059F180E0DA
:101E60000895873009F457C08830C9F781E0089594
:101E7000803109F46CC068F48E3089F79091920437
:101E8000892F8B7F92FF84608093920482FD5BC0D8
:101E9000EDCF863159F3893149F3E1CF8A3279F1B7
:101EA000E0F4873241F120F48E31C8F28D5124C024
:101EB0008932A9F68091A5049091A604892BB1F2EC
:101EC0000E94C40B2FEF84E39CE02150804090409F
:101ED000E1F700C000000E94BD04833448F48A3357
:101EE00008F040C0853339F0883309F4BFCFB7CF4D
:101EF000833409F0B4CF80E00E94A10EB7CF0E94D6
:101F0000B80EB4CF80919204807F8093920481E0D8
:101F10008093F601089590919204892F8E7F90FF0F
:101F200081608093920480FDA1CF817F8093920491
:101F30009DCF90919204892F8D7F91FF8260809335
:101F4000920481FF93CF809192048160EFCF9091B2
:101F50009204892F877F93FF88608093920483FD8A
:101F6000F2CF84CF8953C8CFCF93C82F882309F4E9
:101F700069C08238C1F40E94960681FD63C089E37E
:101F80000E9430050E94F6042FEF81EE94E021506C
:101F900080409040E1F700C0000089E30E942305E3
:101FA000CF910C94F6048338A1F40E94960680FD2C
:101FB00049C083E50E9430050E94F6042FEF81EEB0
:101FC00094E0215080409040E1F700C0000083E59C
:101FD000E5CF8438A1F40E94960682FD33C087E4E1
:101FE0000E9430050E94F6042FEF81EE94E021500C
:101FF00080409040E1F700C0000087E4CFCF8CEF35
:102000008C0F813AB0F58091F601882391F08130F0
:10201000D9F01092F601E6EEF1E08191C81709F4CB
:1020200053C021E0EC3EF207C1F78C2F0E9430052F
:10203000B7CF80915002823271F78C2F0E94220F0D
:10204000882349F3CF910895809150028232A9F3F9
:10205000C43161F028F4CB3039F080E08170F0CFEA
:10206000C93221F0C833C9F781E0F8CF1092F601E8
:10207000F4CF80E28C0F883068F4C77021E030E044
:1020800001C0220FCA95EAF780915002822B8093FB
:10209000500286CFEBE5EC0FE33040F4F0E0E3577D
:1020A000FE4F808190E0CF910C94E605C85AC7316D
:1020B00048F6EC2FF0E0EE0FFF1FE057FE4F808157
:1020C0009181CF910C94D0058C2F0E9423050E9402
:1020D000F604ABCF1F93CF93DF93182FD0E0C0E06F
:1020E000893311F4C0E5D0E0812F0E94B40F20970E
:1020F00031F4812FDF91CF911F910C94A2068FE9CB
:102100009FE00197F1F700C000002197F0CFAF9258
:10211000BF92CF92DF92EF92FF920F931F93CF93D4
:10212000DF93EC018AE0A82E2881222309F48CC0D9
:102130002130C9F599818A81913021F422960E943B
:102140006A1005C0923029F422960E94B40F21969D
:10215000EBCF933021F422960E94A206F8CF943060
:1021600011F02196F4CF229630E020E0AE014F5FCF
:102170005F4F8053990B8A30910550F021503109FF
:1021800030F38FE99FE00197F1F700C00000F6CF30
:10219000A29EB001A39E700D11249C01260F371F33
:1021A0008981EA01E3CFE22FF0E0E059FE4FB490DD
:1021B000822F86958695869590E0FC01E05AFE4F29
:1021C000E4902770F12C022E02C0F594E7940A9453
:1021D000E2F731E0E322FF24FC01E05BFE4FC49014
:1021E000D12C022E02C0D594C7940A94E2F731E0B4
:1021F000C322DD24FC01E05CFE4F049110E002C02C
:10220000159507952A95E2F701701127E114F1045D
:1022100019F081EE0E94B40FC114D10419F086EEBA
:102220000E94B40F8B2D0E946A10CD2819F086EE03
:102230000E94A206EF2819F081EE0E94A206012B4F
:1022400009F485CF8CE27BCFDF91CF911F910F9165
:10225000FF90EF90DF90CF90BF90AF900895CF9315
:10226000DF93EC01805E9109089720F065EB75E043
:10227000209711F466EC75E0CE010E94B6078C2F12
:10228000DF91CF910C94B40FFC018081813029F44F
:10229000FB01808191810C942F11823021F4FB018C
:1022A00082819381F8CF0895CF93DF93EC018881E9
:1022B000823039F4FB01828193810E942F1181E0E9
:1022C0008B87DF91CF9108951F920F920FB60F92D7
:1022D00011242F933F934F935F936F937F938F932B
:1022E0009F93AF93BF93CF93DF93EF93FF93D091DF
:1022F000E900DF708091EC00C82FC17080FDC0E85C
:102300001092E9008091F000877F8093F00078942C
:102310000E94CF0B1092E9008091F00088608093BA
:10232000F000CD2BCF70C093E900FF91EF91DF91CA
:10233000CF91BF91AF919F918F917F916F915F915D
:102340004F913F912F910F900FBE0F901F901895B6
:102350001F920F920FB60F9211242F933F934F931A
:102360005F936F937F938F939F93AF93BF93EF93FD
:10237000FF938091E10082FF09C08091E20082FF1B
:1023800005C08091E1008B7F8093E1008091DA00AD
:1023900080FF24C08091D80080FF20C08091DA00A7
:1023A0008E7F8093DA008091D90080FF9BC080E10E
:1023B00089BD82E189BD09B400FEFDCF81E0809333
:1023C000BF048091A904811109C00E9405030E94E5
:1023D000F8038091E20084608093E2008091E10044
:1023E00080FF17C08091E20080FF13C08091E2005F
:1023F0008E7F8093E2008091E20080618093E20012
:102400008091D80080628093D80019BC85E08093C9
:10241000BF048091E10084FF29C08091E20084FF25
:1024200025C080E189BD82E189BD89B5982F917071
:1024300080FFFBCF8091D8008F7D8093D800809162
:10244000E1008F7E8093E1008091E2008F7E809397
:10245000E2008091E20081608093E2008091B60406
:10246000882309F445C084E08093BF048091E10093
:1024700083FF27C08091E20083FF23C08091E100A9
:10248000877F8093E10082E08093BF041092B604BE
:102490008091E1008E7F8093E1008091E2008E7F49
:1024A0008093E2008091E20080618093E20042E04C
:1024B00060E080E00E94C6038091F0008860809315
:1024C000F000FF91EF91BF91AF919F918F917F911C
:1024D0006F915F914F913F912F910F900FBE0F9091
:1024E0001F90189519BC1092BF041092A90476CFC2
:1024F0008091E30087FD93E09093BF04B7CF789479
:102500001F921FB61F9211248F939F93AF93BF9377
:102510008091560290915702A0915802B0915902B1
:102520000196A11DB11D8093560290935702A0936E
:102530005802B0935902BF91AF919F918F911F9014
:102540001FBE1F9018952FB7F89480915602909156
:102550005702A0915802B09159022FBF08950F93CE
:102560001F93CF93DF93C62FD42F022FFC018281BC
:102570008823A1F06093C2040E94A3129093C10427
:102580008093C004C77081E001C0880FCA95EAF744
:10259000DF91CF911F910F910C94C6058091C204D9
:1025A000681335C08091C0049091C1040E94CE048C
:1025B0008F3A910560F510E21D0FCD17B9F080E25A
:1025C0008C0F883040F4C77081E001C0880FCA9535
:1025D000EAF70E94BF05183048F481E09D2F9770FC
:1025E00001C0880F9A95EAF70E94C605802F0E94C5
:1025F0006A10183098F4D77081E001C0880FDA951E
:10260000EAF7DF91CF911F910F910C94BF05C7702E
:1026100081E001C0880FCA95EAF7F3CFDF91CF912F
:102620001F910F9108954F925F926F927F928F92B8
:102630009F92AF92BF92CF92DF92EF92FF920F9351
:102640001F93CF93DF9300D000D00F92CDB7DEB7AA
:102650007C01DC0113968D919C911497892B39F0A4
:102660008C9111969C9189238F3F09F045C50F905D
:102670000F900F900F900F90DF91CF911F910F91BE
:10268000FF90EF90DF90CF90BF90AF909F908F9092
:102690007F906F905F904F9008950E94C50A182F09
:1026A000682F89819A810E94720569817A81812FC0
:1026B0000E940E098C01F70182818111AFC0D70100
:1026C00012964C914111EAC00031FFE51F0709F451
:1026D00079C101312FE5120709F478C1C801975576
:1026E0008F3F910511F008F081C120917201022EF7
:1026F000000C330B2817390714F48093720126E17C
:10270000289F5001299FB00C112495012C5F3E4F4A
:102710006901D90150964C935097F7019281169612
:102720008C911697992309F453C11A961C930E9312
:1027300019978F5F16968C930E94A312D6011E964E
:102740009C938E931D978091510217968C931797A7
:1027500080914F0290915002892B18968C93189774
:10276000ED91FC911197309739F054966D917C91D1
:10277000C501865F9E4F09951093F4010093F30104
:10278000F7018281882309F4CAC41092C20402307E
:10279000FCE51F0708F43DC206312CE5120738F0AE
:1027A00098012A5F3C452930310508F032C20E9469
:1027B000D108909362028093610200313CE51307D7
:1027C00009F4F6C108F089C108305CE5150709F481
:1027D000E5C108F058C104309CE5190709F4D6C1D9
:1027E00008F03EC10230BCE51B0709F4C9C1809165
:1027F0006102826003301C4509F4C5C16091610229
:102800001091620284E090E00E945D23612F81E2DA
:1028100090E00E945D230E94C40B51C08091720120
:102820008F3F09F44CCF54E0C52E51E0D52EB12C8A
:10283000A12C9924939480917201082E000C990B7D
:102840008A159B050CF43BCFF60186818823F9F0AD
:10285000818592850817190739F48091F3019091C9
:10286000F4010817190799F0D6011F969C921F973B
:102870001C961C930E931B9751968C91811103C04B
:10288000C6010E94F106C60106960E941207BFEF1C
:10289000AB1ABB0AE6E1CE0ED11CCDCFC8018251E6
:1028A0009F45409708F01CC48FEF93E00E944F2390
:1028B0004EEED42ED00E06E711E08823D1F08091A1
:1028C0004D02877009F4D3CEF7018281882309F481
:1028D000CECE82E00E945306CACE0115F4E01F0757
:1028E00071F3C8010E944F23811101C0DA940F5F78
:1028F0001F4FD110F2CF19821A821B821C82CC2466
:10290000CA9448012FEF821A920AC8010E944F23ED
:1029100089831A82882399F2813009F047C05801CF
:1029200032E0A30EB11CC4010E944F23982E8A836B
:10293000882329F2C5010E944F23D82E8FEF890DDD
:10294000833068F4580143E0A40EB11CDB82DD2023
:1029500021F0CE0101960E9487108501D2CF54E06C
:102960009512FBCF580184E0A80EB11CC801039654
:102970000E944F23DD2009F4A2CF882309F49FCFC2
:102980008150990BC89E9001C99E300D1124AD2D28
:10299000A150BB0BCD01820F931F0197F0F2EFE91D
:1029A000FFE03197F1F700C00000F7CFCE010196AC
:1029B0000E9487105401D1CF81E00E946B060E94D3
:1029C00014067DCF81E00E943006F9CF82E0FBCF74
:1029D000882309F4D5CEF9018189882309F4D0CE62
:1029E000C501865F9E4F0E941207CACE033FFCE5D9
:1029F0001F0739F188F4083D3CE51307F1F0093D64
:102A00004CE5140751F1073D5CE5150709F0B8CE18
:102A100026E241EE61EE0DC0053F8CE51807C9F0D6
:102A2000A0F027E245EE66EE063FACE51A0709F096
:102A3000A7CEC7010E94AF1242CF27E245EE65EE56
:102A4000F8CF26E241EE60EEF4CF27E245EE64EEE9
:102A5000F0CF26E241EE62EEECCF28E241E0EFCF8C
:102A60008091610280610630FCE51F0709F48BC08C
:102A700080916102886007301C4508F484C0809111
:102A80006102806280C0809161028D7F0C303CE5E4
:102A9000130709F478C070F4809161028C600A30E9
:102AA0005CE5150709F46FC008F47CC080916102F1
:102AB0008E7F69C080916102877F0E309CE5190787
:102AC00009F461C0809161028B7F0F301C4508F4CE
:102AD0005AC0809161028F7E56C00B3FBCE51B0738
:102AE00009F458C030F50331FCE51F0709F468C04C
:102AF00078F401313CE5130709F45EC002311C454E
:102B000009F07CCE0E94C40B809161028F773BC09C
:102B100005315CE5150709F45BC008F46FC08091CE
:102B2000620281600A3F1C4509F068CE8093620210
:102B300065CE0F3FACE51A0709F446C088F48091D2
:102B400062028D7F0D3FECE51E0781F380916202EA
:102B50008E7F0E3F1C4550F3809162028360E6CF6A
:102B600001302DE5120709F452C0F0F160E00230A7
:102B70001D4509F043CE8EE090E00E945D233ECEDD
:102B80008091610281608093610238CE8091610200
:102B90008460F9CF809162028260C8CF8091610227
:102BA0008064F1CF0E94C40B809161028068EBCFFA
:102BB000809161028F7DE7CF809161028F7BE3CFAF
:102BC00080916102837FDFCF809162028C7FAECFE4
:102BD0008091610282FB992790F921E0922790FB76
:102BE00082F990FB83F9CFCF80916202982F909564
:102BF00091708E7F892B90FB81F998CF0E94C40B36
:102C000090916102892F97FB87F98058BCCF61E0D2
:102C1000B2CF06315CE5150709F08CC280915002F5
:102C20008A7A91E009F490E09093F501811106C051
:102C300089E20E9430050E94F60441CE85E3F9CF77
:102C400085E375C20E94C40B8FEF94E3ACE0815022
:102C50009040A040E1F700C000000E94BD040E9427
:102C6000B80E2DCEC8010E944905D82E7AC2212F58
:102C70002F70A22E107F19F0A29490EFA922DD20D0
:102C8000C9F0AA2069F080E2800F883010F081102E
:102C90000BC080915002A82AA09250020E94F60414
:102CA000802F0E94B40F15C080914F02A82AA092D5
:102CB0004F02F4CF802F0E94A206AA2051F0005E9E
:102CC000083010F0811025C08A2D0E94EF040E9468
:102CD000F604AB2DA850BB0B149710F40E94960677
:102CE000CC2009F4C4CC80914D0280FDC0CCF7010A
:102CF00012828595859585950E946B06C7010E9475
:102D0000131380914D028595859585950E94300617
:102D1000AECCA09480914F02A822A0924F02D7CFB0
:102D2000312F3F70932E107F103219F0929480EF64
:102D30009822882071F041E0841661F1DD20B9F11C
:102D4000AA2071F1F701858180FFAACF8F7085835A
:102D500027C0DD2091F090915102892F8929A1107F
:102D600003C00E94C605B5CF51E0A512FACF98174F
:102D700009F4AFCF80935102ACCFA11006C00E94DE
:102D8000E904892D0E94BF05A4CF81E0A81609F4AB
:102D9000A0CFF5CFDD2031F093E09A1508F499CF5C
:102DA000892DDFCFA2E0AA1508F493CFEACFAA209D
:102DB00041F3F9E38F1209C02FEF37EE43E02150C2
:102DC00030404040E1F700C00000802F0E94A20682
:102DD00080CF812F86958695837061F0813009F0D0
:102DE00078CFC8019370D11002C090E080E00E94BB
:102DF000D0056FCFC8019370D11002C090E080E081
:102E00000E94E60566CF812F837009F066C0D1105D
:102E100060CF802F829586958770880F880F602FEE
:102E20006F70462E512C712C612C082E04C0440C5E
:102E3000551C661C771C0A94D2F740E050E0BA019A
:102E400004FF0FC04FE050E060E070E004C0440FAA
:102E5000551F661F771F8A95D2F74095509560954C
:102E60007095812F869586958370823019F1D8F4FC
:102E70000091520210915302209154023091550258
:102E8000813069F04429552966297729CB01BA0197
:102E900060237123822393230E948C061ACF402A39
:102EA000512A622A732ACB01BA016429752986291D
:102EB0009729F2CF44295529662977290091520292
:102EC000109153022091540230915502CB01BA0166
:102ED0006027712782279327DFCF8695DD2011F0A9
:102EE000812F8170882309F4F4CE802F82958695F6
:102EF0008770880F880F602F6F70462E512C712CB1
:102F0000612C082E04C0440C551C661C771C0A94C6
:102F1000D2F740E050E0BA0104FF0FC04FE050E0AC
:102F200060E070E004C0440F551F661F771F8A954C
:102F3000D2F74095509560957095812F869586952E
:102F40008370823019F1D8F40091C3041091C40445
:102F50002091C5043091C604813069F04429552977
:102F600066297729CB01BA01602371238223932339
:102F70000E940A06AECE402A512A622A732ACB0149
:102F8000BA016429752986299729F2CF4429552940
:102F9000662977290091C3041091C4042091C504C7
:102FA0003091C604CB01BA0160277127822793278D
:102FB000DFCF1F70DD2029F0812F0E946B06802F4C
:102FC000D0CE802F0E94BF05812F0E94300681CE77
:102FD000802F52EF851609F450C0581578F090EF05
:102FE000891619F1A1EF8A1609F43FC0DD2009F412
:102FF00067C0A11055CE812F8F713CC0B3EF8B16E7
:1030000009F440C0E4EF8E12F1CFDD2009F44DC089
:103010001F71812F0E946B0638E0139FC00111249D
:10302000836080934D02812F25C0DD20C9F0F2E03E
:10303000FA1508F44ECE1F7161E070E080E090E078
:1030400004C0660F771F881F991F1A95D2F7009149
:10305000C3041091C4042091C5043091C604A4CFC8
:1030600023E02A1508F435CEE6CF812F8F71DD20BD
:1030700009F4ABCF0E946B062CCE812F8F71DD201F
:10308000C9F3A3CF60E070E0CB01DD2009F470CF7D
:103090001F7161E070E080E090E004C0660F771F70
:1030A000881F991F1A95D2F763CF81E00E945306BB
:1030B00041E04A1508F00DCE82E00E94530609CE89
:1030C000AA2059F0893309F080CE5FEF87EE93E0B4
:1030D000515080409040E1F776CE812F8F7175CFAF
:1030E00000313FE5130709F467CC01315FE51507AF
:1030F00009F0F4CA82E061CC85E0F701DE011196A7
:1031000001900D928A95E1F7D70112962C91898151
:103110009A812111C2CA0E944905182FC6CA0631D8
:103120001C4589F48091F50181118ACD89E20E94C4
:10313000230581CD0115ECE51E0709F483CD0E3D75
:103140001C4509F48CCDD7010D911C91882309F4FD
:1031500089CDC8010E94C50AD82E682FC8010E94D7
:103160007205B8018D2D0E9421098C01882EF7016E
:10317000D280A580A2943FE0A32280914D02877067
:10318000A1F0CD2CDD2091F0812F807F803421F0C3
:1031900080E2800F883048F082E00E9453068091E0
:1031A0004D028770CC24C3948111C12CB12EB294EE
:1031B0002FE0B222FBE0FB1508F48BCDEB2DF0E005
:1031C000E555FC4D0C9432231F93CF93DF938091F0
:1031D000FC01807FA9F48091F901882389F0809116
:1031E0002E02D091FD016091F7017091F801A0913C
:1031F000FA01B091FB01C62FC72316E0D81304C013
:10320000DF91CF911F91089590E0109711F0CF3F7B
:1032100019F401968770F2CF189F9001199F300D15
:103220001124F901E250FE4F41814713F2CF408152
:103230004613EFCF42814111ECCF438154814A1BA9
:103240005B0B4F3A510528F78091FC018F7080612C
:103250008093FC01F901ED5FFD4F80818F708061EB
:10326000808387EF91E00E941313DF91CF911F912C
:103270000C94A005AF92BF92CF92DF92EF92FF9293
:103280000F931F93CF93DF93CDB7DEB761970FB640
:10329000F894DEBF0FBECDBF8C0185E0F801DE01E2
:1032A0001D9601900D928A95E1F7F8018081918138
:1032B000E28027EFA22E21E0B22E6091FA017091F8
:1032C000FB016115710509F43EC13091F701409190
:1032D000F801232F24232F3F09F435C1C380D48064
:1032E000F090F901F601E61BF70BFF2009F4FBC093
:1032F0002091FC01522F507FEF3AF10508F0BBC03E
:10330000511178C0FE2C491321C038131FC0E110A1
:103310001DC02F7020612093FC01C5010E94131372
:103320008091FC01F80185838F2D61960FB6F8948A
:10333000DEBF0FBECDBFDF91CF911F910F91FF90E8
:10334000EF90DF90CF90BF90AF900895CD2829F0F7
:10335000282F29232F3F09F014C120E0F22FF1700C
:10336000DF2E20FF3DC020912E024091FD0156E04E
:10337000241315C08D879E878D859E850E94070B1F
:10338000292F22952F702230F8F0243020F59F70DD
:10339000F9F0F8019581907FD9F4D12C1FC030E06D
:1033A000529FF001539FF00D1124E250FE4F6181B6
:1033B000961306C06081861303C06281E61210C0B6
:1033C0002F5F3F4F2770D4CF9F7011F0882329F3D0
:1033D000805E883010F3C8010E941313FD2CA4CF27
:1033E000EE2009F4A1CF8091FC0181608093FC0163
:1033F000F12C9ACF491312C0381310C0E1100EC03F
:10340000F8012583C8010E94131386E0F801A7EF95
:10341000B1E001900D928A95E1F786CF8D879E8766
:103420008D859E850E94110B882309F1EE20F9F00D
:103430008091FC01803270F02091F7013091F80109
:1034400038872F831986DB86CA868C87CE0107963C
:103450000E94131386E0F801A7EFB1E001900D92EE
:103460008A95E1F70E94E418FF24F3945DCFC80128
:103470000E941313F9CF51110AC087EF91E00E9407
:10348000131386E0F50111928A95E9F7B1CF49133C
:103490000FC038130DC0E1100BC0F8012583C8011F
:1034A0000E94131386E0F50111928A95E9F73CCF4B
:1034B0008D879E878D859E850E94110B8823B9F28A
:1034C000EE20A9F28091FC01803220F22091F701D8
:1034D0003091F8013A8329831B82DD82CC828E836E
:1034E000CE010196B5CFEF3AF105E0F6FE2CEE20C5
:1034F00009F4BDCF491316C0381314C08091FC01E4
:1035000080FD83CF982F907F09F47FCFF8018583CA
:10351000903F09F477CF982F907F905F8F70892B21
:10352000858370CF8D879E878D859E850E94110B28
:10353000811190CF8091FC0181608093FC01C801D2
:103540000E941313F1CEEE2009F491CF8D879E8750
:103550008D859E850E94110BF82E882309F487CF54
:1035600086E0F801A7EFB1E001900D928A95E1F7AE
:103570008091F7019091F8010E94070B0E94E418D6
:10358000D3CE21E02E25EACE1F93CF93DF93CDB784
:10359000DEB767970FB6F894DEBF0FBECDBF342FEE
:1035A0004B8B252F5C8B6D8B7E8B8F8B8E899F89B0
:1035B000611110924F021A8A198A3D872E876F87F0
:1035C000998B888B86E0FE013D96DE01179601906F
:1035D0000D928A95E1F7CE0107960E943A19882349
:1035E00089F016E080912E029091FD01891349C067
:1035F00067960FB6F894DEBF0FBECDBFDF91CF91B7
:103600001F91089586E0FE013796DE011196019024
:103610000D928A95E1F78A859B85892B11F38F811D
:10362000988589238F3FE9F22091FD0130E0C9019F
:1036300001968770992740912E024817190671F458
:103640000E94C40B1092FD0110922E0286E0E7EF5B
:10365000F1E0DF011D928A95E9F7C3CF96E0929FD2
:10366000D001939FB00D1124A250BE4FFE013196A0
:1036700001900D929A95E1F78093FD010E94A005BB
:10368000B0CF819FC001112482509E4F0E943A19F1
:10369000882309F4ADCF80912E0290E001968770C7
:1036A000992780932E029ECFBF92CF92DF92EF9206
:1036B000FF920F931F93CF93DF939EEBE92E91E040
:1036C000F92ECAE5D2E0C12CD12C01E010E0F701BF
:1036D00081917F01F894E82FE295EF70F0E021A14D
:1036E0008F70A80102C0440F551F8A95E2F7CA01E6
:1036F000922F982B91A392A18095892382A37894ED
:1037000000C0E5ECF1E030E020E0B12C4191A42FC5
:10371000A295AF70B0E090968C9190E04F7002C08F
:10372000959587954A95E2F780FD54C0802F022E2B
:1037300001C0880F0A94EAF7B82A2F5F3F4F26305E
:10374000310521F7F701319780810E945C0756E02F
:10375000C51619F080EA8A95F1F78881B816E1F16B
:10376000B88281E0D82AC3942196E7E0CE12AFCF89
:10377000DD20A1F181E08093EE010E94A3129093DD
:10378000ED018093EC018091EC019091ED010E949C
:10379000CE04069738F180915A0280939E0480915E
:1037A0005B0280939F0480915C028093A0048091CF
:1037B0005D028093A10480915E028093A2048091B7
:1037C0005F028093A304809160028093A40410920E
:1037D000EE0108C080E0B0CF80E0C4CF8091EE0160
:1037E0008111D1CF8091720110E006E18F3FE1F5A8
:1037F0008D2DDF91CF911F910F91FF90EF90DF9072
:10380000CF90BF900895029FF001039FF00D112407
:10381000EC5FFE4FE288F388E114F10419F48FEABB
:10382000E82EF12C029FE001039FD00D1124CC5F04
:10383000DE4F8E818823B9F08D859E850E94CE044F
:10384000E816F90680F4109F70011124898981110E
:1038500005C0C7018C5F9E4F0E94F106C701865FBD
:103860009E4F0E9412071F5F212F30E0809172014E
:10387000082E000C990B821793072CF6B9CFCDB701
:10388000DEB7E5970FB6F894DEBF0FBECDBF84B7A5
:10389000877F84BF0FB6F894A895809160008861F7
:1038A00080936000109260000FBE80E890E00FB639
:1038B000F89480936100909361000FBE85B7806893
:1038C00085BF85B7806885BF87EB94E09093E3015F
:1038D0008093E2010E9405030E94F8038091E200B8
:1038E00084608093E20078948091BF048823A1F0E3
:1038F0001091E9001F709091EC00892F817090FD6C
:1039000080E8182B1092E9008091E80083FD0E9466
:10391000CF0B1F701093E90082E084BD93E095BD4A
:103920009AEF97BD80936E000EEB11E0D8018D9158
:103930008D010E945C07B1E0053C1B07B9F784E9E3
:103940000E945C0786E60E945C0787E90E945C078C
:1039500086EC0E945C0784E30E945C0785E30E947A
:103960005C07EAE5F2E0AEE9B4E011921D9222E0D4
:10397000E136F207D1F70E94541B8FE39CE90197CF
:10398000F1F700C000000E94541B80919E0480FF4C
:1039900017C06FEF82E290E00E945D236FEF83E239
:1039A00090E00E945D236FEF84E290E00E945D232F
:1039B0006FEF7FEF90E080E00E947B230E94BD04C8
:1039C00090E080E00E9457238B3E9E4F11F00E94B2
:1039D000B80E82E290E00E944F23883C09F011C5A6
:1039E00083E290E00E944F23803109F00AC584E20F
:1039F00090E00E944F23853A09F003C51092870496
:103A000080E8809366020E9449226DE070E085E5BF
:103A100093E00E941208892BC9F58091870463E026
:103A200070E081FD17C182E593E00E941208892BA6
:103A300069F56DE070E082E493E00E941208892B42
:103A400029F50E94DD04605A75418F4F9F4F6093A6
:103A50008B0470938C0480938D0490938E04E7E81C
:103A6000F2E080E092E0DF019C011D9221503040A5
:103A7000E1F78FEF9FEF90938A048093890481E0B0
:103A80008093900480938F041092880490E080E0EB
:103A90000E9457238B3E9E4F11F00E94B80E82E089
:103AA00090E00E944F23809392040E94D10890934B
:103AB00062028093610283E090E00E944F23682FAE
:103AC00070E090E080E00E948C068AE791E090939D
:103AD0006402809363028EE994E0A7E0A80FABAB89
:103AE0008091BF0400E112E1853009F4ECC00E942E
:103AF000541BD82E81110E94DD04A3E9B4E0EEE945
:103B0000F4E010E000E0302F81919D91981709F4C6
:103B1000E9C0292F282790E0FF24F394422F4F215A
:103B200009F4DBC099A73AA78F2191E009F490E04E
:103B30009BA70E94A3128160782F9DA78CA749A5FF
:103B40005AA56BA58DA50E94C41AF801ED56FB4F2E
:103B50008081F826F08280919004882399F1209149
:103B6000890430918A042115310539F08091880447
:103B700061E070E0882309F4CDC080918F04882330
:103B800009F10E94DD0400918B0410918C042091B6
:103B90008D0430918E04601B710B820B930B6F3F71
:103BA0007F4F8F4F9F4770F480919004882351F08E
:103BB00062E070E082E693E00E941208892B11F423
:103BC00010928F04D1100E9442080E949606909194
:103BD0009104891721F00E949606809391048091A8
:103BE000BF04843009F07CCF83E08093E9008091AA
:103BF000E80082FF75CF8091E80090E085FF06C065
:103C00000E942403882309F450C191E08091E800C8
:103C10008B778093E800992309F462CF0091A70481
:103C20001091A80489810115110509F45BC18E3F2B
:103C300009F0E0C18A81833020F08550833008F09C
:103C4000D9C1EA81E93008F0D5C1F0E0E954FC4D72
:103C50000C9432238FE493E0E8CE8091BF0484304B
:103C600021F110926502E8E1F0E020E40FB6F8944B
:103C7000A895E09360000FBE2093600083B7817F1A
:103C8000846083BF83B7816083BF7894889583B74E
:103C90008E7F83BF0FB6F894A895809160008861ED
:103CA00080936000109260000FBE8091B50488235D
:103CB00051F00E94541BEEE9F4E0819181118BC315
:103CC0003BA93E13FACF8091BF04853009F4C5CFDC
:103CD0000E94C40B0E9496060ACF9F5FFF0C96308D
:103CE00009F01CCF0F5F1F4F0730110509F00BCFF4
:103CF0008FEF8EA78FA718AA0E94A3128160782F3A
:103D00009AAB89AB4EA55FA568A98AA90E94C41A7F
:103D100022CF8F5F082F10E07B01082E02C0EE0C2F
:103D2000FF1C0A94E2F7A9014E215F21452B89F37C
:103D30009091870490FD43C08295880F8076809390
:103D4000750198013695279536952795209378012A
:103D5000815E809376011092790124E630E047E09D
:103D600050E063E771E088E70E94DA22892B09F0CE
:103D700004CFA801E5E0440F551FEA95E1F78091D3
:103D8000870480FD2AC049575D4F04E610E020E219
:103D900030E060E488E70E940123892B09F0EDCE32
:103DA0000E944208E094F0948091890490918A04E2
:103DB000E822F922F0928A04E0928904DECE880F8C
:103DC000880F880F8093750110927801895F809326
:103DD000760183E080937901C0CFE7E6F2E080E2EC
:103DE000DF011D928A95E9F7EFECF1E0FDABECAB5A
:103DF0000BEC11E063ED262E61E0362E77E0972E76
:103E000088248394ACA9BDA92D91BDABACABF801BE
:103E100041908F01440E552E511CC20189579D4F70
:103E20002C01E22FF0E0E959FD4F30E020E0692C51
:103E3000621AC82C022E01C0CC0C0A94EAF7520177
:103E400090E0D5018D915D018C21662D691B677015
:103E5000762E062E000C770BB82F01C0BB0F7A947C
:103E6000EAF77B2E7195619571096770772701C01C
:103E700086956A95EAF7782A8081782A70829F5F12
:103E80009830F9F62F5F3F4F31962830310579F69B
:103E9000ECA9FDA92E163F0609F0B4CF04E610E008
:103EA00020E230E047E652E074CF00E210E09E01ED
:103EB0002F5F3F4F79018091E80085FD0AC0809116
:103EC000E8008B778093E8000E942403882399F30D
:103ED0009CCE8091F100D7018D937D010150110995
:103EE00051F793CE8C3009F4CEC058F5843009F4E4
:103EF000B1C058F4823009F46CC008F09CC0813025
:103F000009F463C08FEF898375C0863009F4B8C0A7
:103F100008F4ABC08B30B1F78091A5049091A60452
:103F2000892B09F467C0CE0101960E947F033FEF01
:103F300081EE94E0315080409040E1F700C00000F5
:103F40003DCD803109F4D2C0A0F58E3009F4A2C075
:103F500008F49CC08091A5049091A604892B09F4D3
:103F600049C08C81C82ED12C2DE1C216D10408F095
:103F700041C0EA80FB80FE24EF24FE248E010F5F07
:103F80001F4FC00ED11EC7018A589E4FC016D106C2
:103F900089F13AE8E31632E0F30628F4D8011496E2
:103FA0006C910E945D230F5F1F4FBFEFEB1AFB0A5E
:103FB000EACF823109F49FC008F49BC0833109F431
:103FC000C5C08E3F09F09ECF3CCE1A8289E08B831C
:103FD00011C08A81823009F42DC2833081F0813092
:103FE00009F090CF0E94DD040E9438236B837C830C
:103FF0008D839E83CE0101960E947F0371CD8091B7
:10400000A5049091A604892BA9F380919E048B832B
:1040100080919F048C838091A0048D838091A10462
:104020008E838091A2048F838091A30488878091DE
:10403000A4048987DFCF8A81823009F063CF6B8146
:104040007C818D819E810E94382385E290E00E94D0
:104050005D23D0CF4C816B818A810E94DF08982735
:10406000892798279E838D83C5CF2D813E81322756
:10407000232732274C816B818A810E94450BBACF5E
:104080000E947A0BB7CF80E18A83B4CF82E08A8323
:104090008AE89DCF8C81C82ED12CBDE1CB16D104EE
:1040A00008F0A8CFEA80FB80FE24EF24FE248E01D6
:1040B0000F5F1F4FC00ED11EC7018A589E4FC016FA
:1040C000D10609F497CFEAE8EE16E2E0FE0658F4CE
:1040D0000E944F23D80114968C93FFEFEF1AFF0A2A
:1040E0000F5F1F4FE9CFF8011482F7CF0E94350B05
:1040F00081CF84E0C9CF8C81C82ED12CEDE1CE16C2
:10410000D10408F077CFEA80FB80FE24EF24FE2460
:104110008E010F5F1F4FC00ED11EC70186960C1572
:104120001D0509F467CFF0E5EF16F1E0FF0658F43E
:104130000E944F23D80114968C93FFEFEF1AFF0AC9
:104140000F5F1F4FEACFF8011482F7CFEC80F12CFC
:104150002DE1E216F10408F04DCF0A811B811027F2
:1041600001271027003531E0130708F043CF80E521
:1041700091E0801B910B8E159F0508F43BCF480101
:1041800086E2880E911C8091A5049091A604892B4B
:10419000D1F5680191E0C922DD2400FF0DC0C801FE
:1041A00085960E944F239D8189279827892781150D
:1041B0009C4511F48FEF8D83C701800F911F57012C
:1041C00080FF17C0B1E0AB1AB10835E0632E712C47
:1041D0006C0E7D1E6A0C7B1CC4018E0D9F1D0E94FF
:1041E0004F23F301908181159C4519F48FEFD30182
:1041F0008C93E1E0F0E0EC0FFD1FEC0DFD1D2FEFC7
:10420000CA14DB0438F09E012F5F3F4F6901E20EB4
:10421000F31E19C09481858181159C4511F4248376
:10422000258332E0C30ED11C3296EACF0035A1E0DF
:104230001A0720F4F60164810E945D23FFEFCF1A74
:10424000DF0A0F5F1F4FC8018696CE14DF0471F797
:10425000D1CE88E0E5E8F1E0DE01919601900D9283
:104260008A95E1F783E089831A821B821C8288E0A9
:10427000FE01B196DE01159601900D928A95E1F747
:10428000B9CE80E6898381E08A831B821C82B2CE0C
:104290008C81682F70E0762F66278B81860F972F91
:1042A000911D092E000CAA0BBB0B25E0880F991F4E
:1042B000AA1FBB1F2A95D1F7AC01BD01405E5F4F1D
:1042C0006F4F7F4F481759076A077B0708F492CE54
:1042D0008036E1E09E07A105B10508F08BCE41369E
:1042E000F1E05F076105710520F040E651E060E014
:1042F00070E0481B590BBC016C597C4FCE010196F4
:104300000E943F2377CE4AE150E06FEF70E0CE018C
:1043100007960E9448238091A50489830A831B8203
:104320001C8285E08D838E8365CE81E090E0909342
:10433000A8048093A70482E390E090939D04809367
:104340009C040E94A31290939B0480939A0452CEE3
:10435000012B61F110919E040091A30480919A04B5
:1043600090919B040E94CE048536910540F105FF93
:1043700026C010FF24C00E94A31290939B04809338
:104380009A0480919C0490919D04019790939D04C0
:1043900080939C04892B51F41092A8041092A704D6
:1043A00081E090E09093A6048093A5048091A504F9
:1043B00089838091A7048A8380919C0408CE82E33C
:1043C00090E090939D0480939C04F0CF1092A604FB
:1043D0001092A5040FCE09BD19BD09B400FEFDCF92
:1043E0008091D8008F7D8093D8008091E00082601A
:1043F0008093E0008091E00081FDFCCF0E94C40B1F
:1044000062CC60E085E290E00E945D230E947A0B1E
:104410000E94350B68EC82E290E00E945D2360E12F
:1044200083E290E00E945D2365EA84E290E00E94CE
:104430005D23E4CA85E290E00E944F231B821C8228
:104440001D8271CF1F921FB61F9211248F939F93CD
:10445000AF93BF9380916502811113C08091560282
:1044600090915702A0915802B09159024196A11D16
:10447000B11D8093560290935702A0935802B093B7
:104480005902BF91AF919F918F911F901FBE1F90B6
:1044900018951092B9008CE08093B8000895EF92BF
:1044A000FF920F931F93CF93DF93182FEB0110927E
:1044B000BC0084EA8093BC000E94A3127C0180911E
:1044C000BC0087FF27C08091B900887F883029F021
:1044D0008091B900887F8031D9F51093BB0084E8C2
:1044E0008093BC000E94A3128C018091BC0087FFC6
:1044F00024C02091B900287F90E080E02831B1F0FD
:1045000081E090E0203411F490E080E09195819575
:1045100091090CC0CF3FDC0791F20E94A3128E19C3
:104520009F098C179D0758F28EEF9FEFDF91CF9177
:104530001F910F91FF90EF900895CF3FDC07A9F2F4
:104540000E94A312801B910B8C179D0770F2ECCF79
:104550008FEF9FEFEBCF0F931F93CF93DF93EB0181
:104560008093BB0084E88093BC000E94A3128C015E
:104570008091BC0087FF11C02091B900287F81E0A5
:1045800090E0283211F490E080E0919581959109B6
:10459000DF91CF911F910F910895CF3FDC0741F339
:1045A0000E94A312801B910B8C179D0708F38EEFBE
:1045B0009FEFEECFCF92DF92EF92FF920F931F9378
:1045C000CF93DF936B018A017901B9010E944F22D9
:1045D000E6010C0D1D1DC017D10761F424E92093DD
:1045E000BC00DF91CF911F910F91FF90EF90DF9072
:1045F000CF90089597FDF2CFB70189910E94AB2229
:10460000EACFCF92DF92EF92FF920F931F93CF9357
:10461000DF93C62F6A017901B8010E944F2297FDEE
:104620000CC0B8018C2F0E94AB22E601EC0CFD1CE3
:10463000CE15DF0511F097FF0CC024E92093BC00D4
:10464000DF91CF911F910F91FF90EF90DF90CF906E
:104650000895B80189910E94AB22EACF84E9809342
:10466000BC000895EE0FFF1F0590F491E02D099412
:104670006927962769277827872778270895FB01D8
:10468000DC0102C005900D9241505040D8F70895CA
:10469000DC0101C06D9341505040E0F70895F99955
:1046A000FECF92BD81BDF89A992780B50895A8E103
:1046B000B0E042E050E00C948323262FF999FECF1E
:1046C00092BD81BDF89A019700B4021639F01FBA65
:1046D00020BD0FB6F894FA9AF99A0FBE0895039682
:1046E000272F0E945E230E945D23252F0E945E23B8
:1046F000242F0C945E230196272F0E945E230C9496
:104700005D23DC01CB01FC01F999FECF06C0F2BDAF
:10471000E1BDF89A319600B40D9241505040B8F77F
:104720000895F894FFCF200B200B290B290B2B0B9E
:10473000290B290B290B200B200B300B290B290BE4
:10474000300BB40CDC0C2F0DDC0C2F0D0F0D470DB6
:104750002F0D4F0E5C0E3716371690169016E91671
:104760006916691669160317D917E817E81729217A
:1047700041214821FA1FFA1F83219521A821E62112
:104780004A004D0000000000000000000000000092
:104790000000000000000000000000000000000019
:1047A0000000000000000000000000000000000009
:1047B00000000000000000000000000000000000F9
:1047C00000000000000000000000000000000000E9
:1047D000000000000000000000000000541144111F
:1047E00002080000000000000000000000000000BF
:1047F0000001FF0021007F220003BA04A408B904CD
:10480000A0089C0801C0ED8D24885FD09F81828321
:10481000E200E900EA00B500B600B700CD00830170
:10482000CC008A0192019401210223022402250274
:10483000260227022A02B300B4006F007000F4F5CC
:10484000F6F7313332946697C634350008101818DD
:104850001008004022320001DE00AC00D604EF0454
:024860000F0542
:00000001FF
