:100000000C94A8020C94EF020C94EF020C94EF02F3
:100010000C94EF020C94EF020C94EF020C94EF029C
:100020000C94EF020C94EF020C9475240C94312480
:100030000C9470250C94EF020C94EF020C94EF02D8
:100040000C94EF020C94EF020C94EF020C94EF026C
:100050000C94EF020C944C250C94EF020C94EF02DC
:100060000C94EF020C94EF020C94EF020C94EF024C
:100070000C94EF020C94EF020C94EF020C94EF023C
:100080000C94EF020C94EF020C94EF020C94EF022C
:100090000C94EF020C94EF020C94EF020C94EF021C
:1000A0000C94EF020C94EF020C94EF02050109800E
:1000B000A101850319012AB700150126B700950192
:1000C00075108100C0050C0901A101850419012AE0
:1000D000A002150126A002950175108100C00660DE
:1000E000FF0961A1010962150026FF00952075082E
:1000F00081020963150026FF00952075089102C052
:1001000005010906A101050719E029E715002501E8
:10011000950875018102950175088101050719008F
:1001200029FF150026FF00950675088100050819AE
:10013000012905950575019102950175039101C08D
:1001400000000000000000000000000000000000AF
:10015000000000000000000000000000000000009F
:10016000000000007E0F00D4FFFFFFC700000078F2
:1001700000000000000000002A2B28000000000002
:100180000000000000000000000000290000000046
:100190002C1E3420212224342627252E362D3738B4
:1001A000271E1F202122232425263333362E3738BD
:1001B0001F0405060708090A0B0C0D0E0F1011127B
:1001C000131415161718191A1B1C1D2F3130232D47
:1001D000350405060708090A0B0C0D0E0F10111245
:1001E000131415161718191A1B1C1D2F3130354CF6
:1001F000FD377A585A000004E6D6B44602002101C1
:1002000016000000742FE5A3E003E0011D5D003D32
:100210008889C65436C3174FE4E59262E106D87A5E
:100220000323BD3E6B34D9DD610DA8C5B1872ED93E
:100230007AE23A9D21F26930F84A8426B023A54D2E
:100240006B3011CD5BFC90507A8DAA4806E91D9762
:1002500038C2BE8880BE7D8FF797A288627E69AF64
:10026000A2F9B8332261B9705B5B46BCFDB7019659
:1002700085DE1C26C80A4CF11D39A846D00D1F2A60
:100280003B4FE1C28FCCF71A5B8F02A82C77838497
:100290001CE0888C2ECB1DD92055A608D7D3687AB0
:1002A000911D3172F83873DEC283D7849A695DD7A5
:1002B000CC230F6AD197E84C2C21068BFFC0561F28
:1002C00063B5405F8AC19C5DB1EC7894EF0046B1A4
:1002D0008AD5E88ED00B752DEFC0814FB9F4C4914B
:1002E000E3BD786C4615A4E6EEFB52DC028D8F6D03
:1002F000B8BA5FF5E7D8B610444AFB0AE7F3419273
:10030000F010E8BCBDB1302C196A219993E15B80F3
:10031000ED34523F848E1204A20F8FFAD427D5E019
:1003200077E3B1D604A01279B8391A0000000000B2
:10033000CE18B2F02F0BBD870001B902E107000013
:10034000D8F5DCEFB1C467FB020000000004595A85
:10035000165C1400070015001A0005002B6204004B
:1003600016000B6817640A00E0001D001B00100057
:10037000060019000D0009001800130033002A00C0
:100380001C001174080012000C0034000E000F0055
:10039000360037003800287201582C00025800003F
:1003A0000000000035003A003B003C003D002F00FB
:1003B00001003E003F00400041002D0001004200CE
:1003C000430044004500460030002400250026007C
:1003D00027004C002E002174227823004A004D0093
:1003E00031001E001F0020000100010001002A0052
:1003F0006300000000000000165C53005F00600016
:1004000061006200010000005C005D685E64BD0088
:10041000E000000059005A005B00BE0000004B00E5
:1004200052004E0000004C00A900500051004F0047
:1004300000000000AA000000000000000000010011
:1004400001000000010000000000000001000100A8
:10045000DA03000002000200D603000003000100DE
:10046000DB03000004000200C00355050500010085
:10047000DC03000006000200C203000007000200C7
:10048000D803000008000100DD0300001200020094
:10049000DE03000013000200E003000009025B001D
:1004A000030100A0FA090400000103010100092171
:1004B000110100012240000705810308000A090418
:1004C00001000203000000092111010001222200A5
:1004D000070582032000010705030320000109042A
:1004E0000200010300000009211101000122320075
:1004F0000705840320000A1201000200000008ED35
:10050000FE105F0100010203011C03760069006117
:10051000006C003A0066003600340063003200626E
:100520000033006300000014037200650076006968
:100530000075006E0067003300390000000C03678F
:1005400000740069007000730000000403090400D7
:1005500011241FBECFEFDAE0DEBFCDBF04B603FE2D
:1005600027C080910C0490910D04A0910E04B091CD
:100570000F048730904BA740B04BD1F410920C047D
:1005800010920D0410920E0410920F0414BE84B742
:10059000877F84BF0FB6F894A8958091600088612A
:1005A00080936000109260000FBEE0E0F8E30995D0
:1005B00011E0A0E0B1E0E6EBF7E502C005900D9296
:1005C000A636B107D9F724E0A6E6B1E001C01D9236
:1005D000AC30B207E1F70E9497250C94A72B0C943E
:1005E0000000E8EDF0E080818E7F80831092E200D1
:1005F0001092DA001092E100A0EEB0E08C918160E0
:100600008C9380818F77808319BCA7EDB0E08C91AB
:100610008E7F8C9380818F7E80831092F403089567
:100620002091E4003091E50095E6A9012091EC00CD
:10063000822F817020FF06C08091E80080FF06C0F5
:1006400080E008952091E80022FD1AC080910A04FC
:10065000882389F0853089F08091EB0085FD0FC0FB
:100660002091E4003091E50042175307F9F29150D0
:10067000E1F684E0089582E0089583E0089581E042
:100680000895EF92FF920F931F93CF937C018B01FC
:100690000E941003C82F811117C08091E80085FDCA
:1006A0000BC08091E8008E778093E8000E941003D1
:1006B000882399F3C82F08C0F70181917F018093A7
:1006C000F1000150110949F78C2FCF911F910F9123
:1006D000FF90EF900895CF93FC0180910A0484303D
:1006E00001F5C091E900CF702091EC00922F91703C
:1006F00020FD90E8C92B82E08093E9008091E8001A
:1007000080FF0CC050E040E060E270E0CF010E944A
:1007100041038091E8008E778093E800CF70C0930A
:10072000E900CF9108958091020487FF13C0809162
:10073000E80082FF06C08091E8008B778093E80094
:1007400004C080910A048111F2CF089580910A04B7
:100750008823D9F38091E80080FFF8CF8091E800EA
:100760008E77ECCF982F9093E900242F762F50E0CE
:10077000891731F07091EC002091ED005091F0005C
:1007800021FD07C09F5F973071F78093E90081E0FA
:1007900008953091EB003E7F3093EB003091ED00F7
:1007A0003D7F3093ED003091EB0031603093EB00F2
:1007B0007093EC002093ED005093F0002091EE0038
:1007C00027FDE0CF80E00895CF92DF92EF92FF9275
:1007D0000F931F93CF93DF93C8EDD0E088818F7E76
:1007E0008883E7EDF0E080818160808384E082BFD0
:1007F00081E08093F40388818E7F888302EE10E08D
:10080000F80110821092DA0081EEC82ED12CF60188
:10081000108288818F778883888180688883888127
:100820008F7D888319BC10920A04109201041092E3
:1008300000041092FF0390EEE92EF12CF701808165
:100840008B7F808388818160888342E060E080E0E4
:100850000E94B203F60180818E7F8083F80180813F
:1008600081608083808188608083F70180818E7FB2
:100870008083888180618883DF91CF911F910F9160
:10088000FF90EF90DF90CF900895FC0180910804D5
:100890009091090486179707A0F06115710529F456
:1008A0009091E8009E779093E80090E061157105C3
:1008B00051F4911108C08091E80082FF34C080E0BB
:1008C0000895BC01F2CF80910A048823C1F18530DC
:1008D000C1F18091E80083FD30C08091E80082FD85
:1008E000EACF8091E80080FFE1CF8091F300209172
:1008F000F200382F6115710519F02830310558F0D4
:1009000091E02830310509F090E02091E8002E7741
:100910002093E800CBCF81918093F1006150710961
:100920002F5F3F4FE7CF80910A04882341F0853045
:1009300041F08091E80083FFBECF81E0089582E01E
:10094000089583E0089508958091F603089587E758
:1009500097E7909301088093000888E19AE00FB62A
:10096000F894A895809360000FBE90936000FFCF2D
:100970009C014FB7F8948091ED039091EE03A09104
:10098000EF03B091F0034FBF821B930B08952FB775
:10099000F8948091ED039091EE03A091EF03B09154
:1009A000F0032FBF08952091EA033091EB0328173D
:1009B000390771F09093EB038093EA03E091E80329
:1009C000F091E903309721F00084F185E02D09943E
:1009D00008952091E6033091E7032817390771F055
:1009E0009093E7038093E603E091E803F091E90335
:1009F000309721F00680F781E02D09940895E09169
:100A0000E803F091E903309721F00190F081E02DA7
:100A1000099480E00895452B39F0682381E06F3F09
:100A200009F080E08170089581E0FCCFDC016091E5
:100A3000080380910903962F891301C00895292F77
:100A400030E0F901EE0FFF1FE050FD4F4081518172
:100A50004A175B07A1F487E08A9FA0018B9F500D86
:100A6000112448535D4F81E0FA0184839613E6CF49
:100A70002F5F3F4F237033272093080308952F5F84
:100A80003F4F922F9370D8CF10926502109264025C
:100A9000E8ECF2E08581811102C01482168237965B
:100AA00083E0E030F807B1F708958091C00390919A
:100AB000C10390930D0180930C01089580E0089587
:100AC000F894E82FE295EF70F0E031A1282F2F7015
:100AD00081E090E001C0880F2A95EAF7982F909561
:100AE000932391A392A1892B82A378940895909146
:100AF000DB0192FF06C0282F28712830F9F4877F88
:100B0000846093FF06C0282F28712831F1F4877E76
:100B100084612091DC0120FF06C0382F3871383005
:100B2000D9F4877F816021FF06C0282F28712831E2
:100B3000D1F4877E816194FD877E0895282F2471EA
:100B40002430F9F68B7F8860DCCF282F2471243184
:100B500001F78B7E8861DDCF382F3171313019F785
:100B60008E7F8860E0CF282F2171213121F78E7E82
:100B70008861E1CFCF93DF93EC0182389105B1F129
:100B8000E0F58133910509F497C050F5893291055C
:100B900009F48BC08A9709F496C0C11520E5D207E5
:100BA00008F0C2C0C11530E4D30708F037C1C03E19
:100BB000D10508F09DC0C03CD10508F01DC1C83A60
:100BC000D10508F087C0C53AD10508F00DC1C13084
:100BD000D10509F12097F9F0C430D105E0F440C007
:100BE0008533910509F45AC0C997B9F68091DB01A4
:100BF000837089F0C0EED0E00EC0833E910599F17C
:100C000070F4803E910501F1823E910531F68091AC
:100C1000DB0182FD21C0CE01DF91CF910895863E98
:100C2000910561F1873E910571F1843E910509F0CE
:100C3000B4CF8091DC0181FFEECF8091DB01C7EE64
:100C4000D0E084FD0DC0E7CF8091DB0180FD2DC198
:100C50009091DC0190FFDFCFC3EED0E084FFDBCFCB
:100C6000D0E0C0E0D8CF8091DB0182FD21C190911E
:100C7000DC0190FDBFCF84FFCECFF2CF8091DB01AE
:100C800083FDDDCFC8CF8091DB0183FD14C190913E
:100C9000DC0191FFF0CFC4EED0E0BDCF8091DB014D
:100CA00085FFB9CFC9E2D0E0B6CF8091DB0185FFE7
:100CB000B2CFC5E3D0E0AFCF8091DB0186FFABCFF1
:100CC000CAE2D0E0A8CF8091DB0186FFA4CFC1E3C8
:100CD000D0E0A1CFCF3BD10518F6C85AD0E0CC0F59
:100CE000DD1FC55EDE4F0990D881C02DD46493CF3F
:100CF000C11540E2D40760F4C11581E0D80708F0BF
:100D00008ACFCE01815E9109079708F484CFA8CFDE
:100D1000C11590E3D90708F077C0FE01FF70EE0F10
:100D2000FF1FE051FE4F6DC0C11525E5D20758F5F4
:100D3000C11534E5D30708F0A0C0C11542E5D407BA
:100D400050F4C11581E5D80708F46BC0DC2FCC271F
:100D5000C16FD06A60CF9C2F969596959E012370A7
:100D60003327C115D34508F079C0C1E0D0E002C0F7
:100D7000CC0FDD1F2A95E2F720E2929FC0011124DB
:100D8000C82BD92B69C0C11589E5D807A8F4C115AE
:100D900098E5D90708F076C0C11526E5D20708F016
:100DA0005FCF8C2F0E947705C82FD0E0DC2FCC2797
:100DB000CC27DF71D0622FCFC1153AE5D30708F4F5
:100DC00066C0CE0190568115904208F049CF8D2F14
:100DD0008F710E94770590E0982F882788279F7150
:100DE0009C012C2BE901E6CFC55AD0E0C85EDE4F4E
:100DF000C881D0E0D0640FCFFE01EE0FFF1FE05995
:100E0000FF4FC591D49107CFCE019927D3FF03C0DF
:100E1000EC01D86C00CFEC01D06CFDCEDF70D06A55
:100E2000FACECE01E4E096958795EA95E1F78370D6
:100E30002C2F26952695237090E2299F900111244E
:100E4000382B8C2F8370C1E0D0E002C0CC0FDD1FA7
:100E50008A95E2F7C22BD32BDC68DDCEC1E0D0E06F
:100E600002C0CC0FDD1F2A95E2F730E2939FC0014C
:100E70001124C82BD92BDA68CECEDC2FCC27C46F37
:100E8000D06AC9CEDC2FCC27C06FD06AC4CE8C2FDD
:100E90008F700E94770534E0D695C7953A95E1F7B3
:100EA000CF709C2FEC01D069B6CEC9E3D0E0B3CEB1
:100EB000C2EED0E0B0CEC6EED0E0ADCE8091D6018D
:100EC000882331F01092D6011092D5011092D401EE
:100ED000089580959091BF0398239093BF03089540
:100EE00080959091BE0398239093BE03089510922D
:100EF000D2011092D1011092D00108958091C203C5
:100F00009091C303892B89F00E94C7042091D401DA
:100F10003091D501AC01421B530B81E02091C203FB
:100F20003091C3034217530708F480E0817008959D
:100F30008091BE039091BF03892B9091D301892B9F
:100F4000809368018091D601882309F18091C203C2
:100F50009091C303892B29F00E947E0781110E9482
:100F60005E07809168019091D601892B809368017A
:100F700020E08AE691E0FC013191CF0131112F5F31
:100F8000F1E080379F07B9F721110E945E07E091D9
:100F9000E803F091E903309731F00280F381E02D0E
:100FA00088E691E009940895CF93DF93EC0181E006
:100FB000898B8091BE039F81892B8093BE03809192
:100FC000BF039885892B8093BF030E949807EA810D
:100FD000FB81309739F06C897D89CE010696DF91CF
:100FE000CF910994DF91CF910895EF92FF920F93E3
:100FF0001F93CF93DF93EC018A85811134C0EB807E
:10100000FC8087E5F81A26E12E9DC0012F9D900DEA
:101010001124DC01A25FBC4F1496ED91FC91159751
:10102000309731F054966D917C918C5E9C4F099570
:1010300086E18E9D80018F9D100D1124025F1C4F53
:10104000F80187810E947007F80180850E94690776
:101050000E949807188219861B861E821D82109294
:101060000D0310920C03DF91CF911F910F91FF9010
:10107000EF9008958091CF0181111092CF010895D2
:10108000EAE6F1E09191891303C0DF0111971C9208
:1010900091E0E037F907B1F70895AAE6B1E0EFEF84
:1010A00090E02D91821751F0EF3F19F4211101C00A
:1010B000E92F9F5F9630A9F7EF3F09F408950E2EB0
:1010C000000CFF0BE859FE4F828308952091CE015A
:1010D00090918D01291302C080E0089530E0F9015C
:1010E00053E0EE0FFF1F5A95E1F7E257FE4F518193
:1010F000561306C05081581303C05281541304C0C4
:101100002F5F3F4F2770E6CF81E008958091CE0199
:1011100090918D01981301C008958F5F8770FACF69
:101120009E3F51F1292F220FE22FE90FEE0FE80F1A
:101130009E2F9770E695E695E69583E0E89FF0018F
:101140001124ED58FE4F50E040E080E0219130E066
:10115000092E02C0369527950A94E2F721703327AD
:10116000042E01C0220F0A94EAF7822B4F5F5F4FD3
:101170004330510559F7089580E008959E3F71F17D
:10118000292F220FE22FE90FEE0FE80F8E2F877025
:1011900041E001C0440F8A95EAF7E695E695E695A9
:1011A00083E0E89FF0011124ED58FE4F30E020E08D
:1011B00070E05191DF011197CB01022E02C096958C
:1011C00087950A94E2F78170819585278423852786
:1011D0008C932F5F3F4F2330310559F70895E92F46
:1011E000E295EF70E250EE3070F4F0E0E755F44D28
:1011F0000C941A2B803F19F020F4883E20F481E0F3
:101200000895843FE1F380E00895883EC0F3813F74
:10121000D1F7F5CF93FB882780F9089590E080E01F
:101220000E94E90490E080E00E94D3041092BF0382
:101230001092D3010C94980780930B040C940E0920
:1012400080910B04982F9670963019F488600C9456
:101250001C09877FFCCF21E030E001C0220F8A9576
:10126000EAF7209580910B0482230C941C0990913D
:10127000D201809589238093D201282F277039F4D9
:10128000282F082E000C330B9217130621F490918F
:10129000DC0192FF07C08595859585950E942B09F5
:1012A0000C947707089521E030E001C0220F8A9561
:1012B000EAF780910B04822B0C941C099091DC01BD
:1012C00092FD10C098E0899F90011124622B6093D9
:1012D000D2010E9453090E94C7049093D1018093C8
:1012E000D00108950C9453098093D7010C940E09F2
:1012F000882321F00E9469070C9498070895882399
:1013000039F09091BF03982B9093BF030C949807EA
:101310000895882321F00E9470070C94980708957F
:10132000882339F09091BE03982B9093BE030C94C0
:1013300098070895882309F44BC0823871F40E94FD
:10134000FF0481FF45C089E30E944D080E94980771
:1013500089E30E9440080C949807833859F40E944E
:10136000FF0480FF35C083E50E944D080E94980766
:1013700083E5EFCF843859F40E94FF0482FF28C030
:1013800087E40E944D080E94980787E4E2CF9CEF13
:10139000980F913AF0F290E2980F983050F48770DD
:1013A00091E001C0990F8A95EAF7892F0E94700792
:1013B000D2CF9BE5980F933020F490E080E00C941E
:1013C000E904885A873120F490E080E00C94D3043B
:1013D00008959C013A9521153F4150F5FC01EE27F7
:1013E000F170BC0166277270AC01442754709C01F7
:1013F0002227387094FF0EC080E1EF2B09F480E0C3
:10140000672B09F08062452B09F08064232B89F05B
:101410008068089581E0EF2B09F480E0672B09F0E4
:101420008260452B09F08460232B19F088600895B1
:1014300080E0089590910A04943029F58093F10397
:101440007093F3036093F2039093E9008FEF909110
:10145000E800815095FD06C095ED9A95F1F70000E2
:101460008111F5CF8091E80085FF0DC050E040E08C
:1014700063E070E081EF93E00E9441038091E80017
:101480008E778093E8000895BC0184E00C941A0ADA
:10149000BC0183E00C941A0ACF93DF93EC0181E046
:1014A0008093E9008FEF9091E800815095FD06C090
:1014B00095ED9A95F1F700008111F5CF8091E80044
:1014C00085FF14C050E040E068E070E0CE010E946B
:1014D00041038091E8008E778093E80088E0FE0168
:1014E000A7EFB3E001900D928A95E1F7DF91CF91DC
:1014F0000895019708F40895EFE9FFE03197F1F7B7
:1015000000C00000F6CF0F931F93CF93DF9300EC42
:1015100013E0C7E7D1E0CE010E945D2BF801819373
:101520008F012196C939F1E0DF07A9F7C2E5D4E0C0
:10153000FE0185919491009711F0FC010995289680
:10154000F4E0C23ADF07A1F7DF91CF911F910F912D
:1015500008950F931F93CF93DF93843030F5673056
:1015600020F5463010F5C42FD0E0CC0FDD1F2CE065
:10157000629FC00DD11D112434E5839FC00DD11D84
:101580001124CE0187960E945D2B082F10E0102FAA
:101590000027CE0188960E945D2B9801282BC90157
:1015A000DF91CF911F910F91089590E080E0F8CFE7
:1015B000462F20915F0230916002232B91F47E3FF1
:1015C00039F46E3F71F480915D0290915E0208954E
:1015D000843038F4773028F4663018F4672F0C9490
:1015E000A90A90E080E00895CF92DF92FF920F93D6
:1015F0001F93CF93DF936C0100910B048091D7016F
:10160000082BC7E0D0E010E0FC2EC8010C2E02C071
:10161000959587950A94E2F780FD0CC02197A0F775
:10162000F12C8F2DDF91CF911F910F91FF90DF90C3
:10163000CF900895B6018C2F0E94D80A0E94BA0557
:10164000019761F3EECFCF93DF93EC010E94F40A90
:10165000BE010E94D80ADF91CF910C94BA05FC011B
:1016600086819781009721F00E94BA050C94EF08BB
:10167000808191810E94230BF9CF1F93CF93DF9339
:1016800000D000D00F92CDB7DEB749835A8389814D
:101690009A816623B9F02223A9F00E94F40A182F38
:1016A000682F89819A810E94BE0869817A81812F81
:1016B0000F900F900F900F900F90DF91CF911F918F
:1016C0000C94D80A0E949008182FEFCFFC01262F07
:1016D00086819781009739F44081518162817381BD
:1016E00084810C943D0B089583E290E00E945D2B71
:1016F000863789F484E290E00E945D2B8C3D59F49A
:1017000085E290E00E945D2B91E08E3809F090E038
:10171000892F8170089580E0FCCFCF9384E090E022
:101720000E945D2BC82F82E290E00E945D2B982FD3
:101730008C2FCF9108950F931F93CF93DF9300ECDD
:1017400013E0C7E7D1E0CE010E945D2BF801619163
:101750008F01681719F0CE010E946B2B2196C939B1
:10176000F1E0DF0781F7DF91CF911F910F9108958D
:10177000E0ECF3E0128E138E8FEA90E09183808389
:1017800025E0248F28E833E13383228322E330E00D
:10179000378B268B918F808F158E8AE090E0978F04
:1017A000868F80E590E091A380A30E949B0B0C9410
:1017B000830ACF93DF93C9E3D2E060E0CE010E94B9
:1017C0006B2B2196C11584E0D807B9F7DF91CF9133
:1017D00008950F931F93CF93DF938901843048F5C9
:1017E000673038F5463028F521153C4531F4209115
:1017F0005B0230915C02232BE1F0C42FD0E0CC0FD0
:10180000DD1F9CE0699FC00DD11D112494E5899FC7
:10181000C00DD11D1124612FCE0187960E946B2B24
:10182000602FCE018896DF91CF911F910F910C947C
:101830006B2BDF91CF911F910F910895CF93C82FFC
:101840006FEF811166E783E290E00E946B2B6FEFF0
:10185000C1116CED84E290E00E946B2B6FEFC1111F
:101860006EE885E290E0CF910C946B2BCF93C09102
:10187000DC01C2FB992790F9981781F080FBC2F92F
:10188000C093DC016091DB0184E090E00E946B2B4F
:101890006C2F82E290E0CF910C946B2BCF91089546
:1018A0007F928F929F92AF92BF92CF92DF92EF92F0
:1018B000FF920F931F93CF93DF93CDB7DEB764975B
:1018C0000FB6F894DEBF0FBECDBFA0905B02B09004
:1018D0005C0281E090E090935C0280935B0280E583
:1018E000C82E83E0D82E00E0760110E015C0F40188
:1018F00025913491472D612F802F0E94E90B82E0C2
:10190000880E911C7394E6E07E12F1CFFCE0EF0E9E
:10191000F11C1F5F173019F04701712CE8CF0F5FE2
:1019200084E5C80ED11C0430F9F60E94B80B1A8267
:1019300019821C821B821E821D8218861F828FEADA
:1019400090E09A87898709E911E04AE050E0B80100
:10195000CE0101960E948F2B065F1F4F093EE1E0EA
:101960001E0799F77E01FBE0EF0EF11C8AE0F701FC
:1019700011928A95E9F74AE050E0B801C7010E9448
:101980008F2B065F1F4F0933F2E01F07A1F7B092BC
:101990005C02A0925B0264960FB6F894DEBF0FBEA5
:1019A000CDBFDF91CF911F910F91FF90EF90DF900E
:1019B000CF90BF90AF909F908F907F90089580E0E0
:1019C0000E941E0C60E086E290E00E946B2B0E9459
:1019D000500C0E94D90B81E00C941E0C9B018830A6
:1019E00070F49AE0899FB001112467567E4F4AE057
:1019F00050E0C9010E944D2B90E080E008958FEFE8
:101A00009FEF08958F929F92AF92BF92CF92DF92F5
:101A1000EF92FF920F931F93CF93DF93CDB7DEB773
:101A20002A970FB6F894DEBF0FBECDBF0EE013E0CD
:101A3000F12CE12C8BE8C82E83E2D82E95EBA92E51
:101A400093E2B92E2BED822E22E2922EF801D18262
:101A5000C082B382A28295828482F58AE48ABE0122
:101A60006F5F7F4F8E2D0E94EE0C892B29F48985A4
:101A70009A85F801938B828BFFEFEF1AFF0A0A5EBB
:101A80001F4F88E0E816F10409F72A960FB6F8947C
:101A9000DEBF0FBECDBFDF91CF911F910F91FF90A1
:101AA000EF90DF90CF90BF90AF909F908F90089570
:101AB000CF92DF92EF92FF920F931F93CF93DF931A
:101AC000CDB7DEB72A970FB6F894DEBF0FBECDBFF5
:101AD000EBE0F2E080E5DF011D928A95E9F7E8ECA2
:101AE000F2E088E3DF011D928A95E9F78BE0C82ECA
:101AF00082E0D82E7F0109EE11E0F701D182C08289
:101B00004AE050E0B801CE0101960E944D2B88E0DA
:101B1000FE013196D60101900D928A95E1F78985F3
:101B20009A85D70113969C938E931297BAE0CB0EA9
:101B3000D11CE7E0EE0EF11C065F1F4F0933F2E007
:101B40001F07D9F62A960FB6F894DEBF0FBECDBF99
:101B5000DF91CF911F910F91FF90EF90DF90CF9089
:101B600008951092BE03EAE6F1E086E0DF011D92DF
:101B70008A95E9F70C940E091F93CF93DF93CDB7A5
:101B8000DEB7AA970FB6F894DEBF0FBECDBF82E0D6
:101B900094E02091F100DC012D93CD01B4E08A3076
:101BA0009B07B9F780910304833009F471C0B8F43E
:101BB000813009F448C0823009F4B2C08091E80055
:101BC00083FF3AC180910204909103049A3008F097
:101BD00033C1E92FF0E0E954F44D0C941A2B8A300C
:101BE00009F48DC08B3009F470C0893039F78091C9
:101BF0000204813219F7809106049091070400973E
:101C000011F00297D9F68091E800877F8093E80071
:101C10008091E80082FF37C09091F3008091F2003C
:101C2000029729F48091F1008B7F813021F480911B
:101C3000F1008093F6038091E8008B778093E800B1
:101C40000E949303BBCF80910204813A09F0B6CF82
:101C50008091E800877F8093E8008091060490914E
:101C60000704892B61F468E087EF93E070E00E943D
:101C700045048091E8008B778093E8009FCF60E077
:101C800090E080E0F3CF80910A048111C1CF96CF1C
:101C900080910204813A09F091CF809106049091DD
:101CA0000704892B09F08ACF8091E800877F809311
:101CB000E8008091E80080FFFCCF80910F018093C5
:101CC000F1008091E8008E77B9CF809102048132D3
:101CD00009F074CF8091060490910704892B09F0D4
:101CE0006DCF8091E800877F8093E8000E94930386
:101CF0008091040480930F010E94B10D5FCF809109
:101D00000204813209F05ACF8091E800877F8093E6
:101D1000E8000E949303809105048093F5034ECF61
:101D200080910204813A09F049CF8091E800877FD1
:101D30008093E8008091E80080FFFCCF8091F5035C
:101D4000BECF803899F0823809F076C080910604C1
:101D50008F70873008F070C08093E9008091EB00AD
:101D600085FB882780F91092E90006C08091FF0367
:101D700090910004911182609091E800977F909378
:101D8000E8008093F1001092F1008091E8008E77D6
:101D9000C0C1882309F4ADC1823009F04DC08091E3
:101DA00004048111B1C1809106048F702FEF280FB8
:101DB000263008F041C08093E9002091EB0020FF1D
:101DC000A3C1933031F48091EB0080628093EB00EB
:101DD0009BC19091EB0090619093EB0021E030E08B
:101DE00001C0220F8A95EAF72093EA001092EA00D8
:101DF0008091EB008860EACF81111EC0109104042D
:101E00001F778091E3008078812B8093E30080919D
:101E1000E800877F8093E8000E9493038091E800A8
:101E200080FFFCCF8091E30080688093E30082E034
:101E3000111183E080930A048091E80083FF0AC0B7
:101E40008091E800877F8093E8008091EB008062BA
:101E50008093EB00AA960FB6F894DEBF0FBECDBFFD
:101E6000DF91CF911F9108958058823028F72091FB
:101E70000404309105042C3DE3E03E07A1F583E026
:101E80008A838AE289834FB7F894DE01139620E0B3
:101E90003EE051E2E32FF0E050935700E49120FF41
:101EA00003C0E295EF703F5FEF708E2F90E0EA3055
:101EB000C0F0C7968D939D932F5F243159F74FBF84
:101EC0008091E800877F8093E8006AE270E0CE01AD
:101ED00001960E9445048091E8008B778093E8008A
:101EE000ABCFC096E7CF8091060490910704432FB3
:101EF00055274330510509F44AC078F54130510562
:101F000009F485C08BE590E0ECE9F4E0423051053E
:101F100009F092CF2091E800277F2093E8002091DC
:101F20000804309109048217930708F49C0140E0EB
:101F30002115310509F070C041116EC08091E80093
:101F400082FDC9CF80910A04882329F2853019F2D5
:101F50008091E80083FFF2CFBECF4132510509F4F2
:101F600047C04232510509F067CF8330910508F030
:101F700063CFFC01EE0FFF1FE75AFE4F0190F08187
:101F8000E02D8A5A9E4FDC018C9190E01DC03327D2
:101F900021303105E9F02115310579F02230310584
:101FA000F9F02330310509F047CFE9E0F5E0E4919D
:101FB0008E2F90E0E9E0F5E007C0EBE4F5E0E49176
:101FC0008E2F90E0EBE4F5E0009709F435CFA2CF37
:101FD000EDE3F5E0E4918E2F90E0EDE3F5E0F4CF52
:101FE000E7E2F5E0E4918E2F90E0E7E2F5E0ECCF58
:101FF0008330910508F020CF880F991FFC01E15A2A
:10200000FE4F0190F081E02D89E090E083CF82E1E6
:1020100090E0E7EFF4E07ECF80910A04882309F492
:102020005ACF853009F457CF8091E80083FD53CF14
:102030008091E80082FD82CF8091E80080FF78CF18
:102040009091F3008091F2002115310519F088304C
:10205000910550F041E0089709F040E08091E800D8
:102060008E778093E80064CF44914093F1003196DD
:10207000215031090196E8CF803809F0DDCE8091FA
:10208000E800877F8093E800809101048093F1004D
:102090007CCE8111D1CE10910404123008F0CCCE48
:1020A0008091E800877F8093E800109301040E94EC
:1020B0009303112311F084E005C08091E30087FDB4
:1020C000FACF81E080930A0442E061EC81E00E9453
:1020D000B20342E261EC84E00E94B20342E261ECAE
:1020E00082E00E94B20342E260EC83E00E94B2030D
:1020F000A3CE80910404813009F09ECE81E093301C
:1021000009F080E0809300041092E9008091E800DB
:10211000877F8093E8000E9493038ECE6AEE7EEF65
:1021200090E080E00E94892B60E082E090E00E94D5
:102130006B2B60E083E090E00E946B2B1092D70144
:1021400060E084E090E00E946B2B60E082E290E02F
:102150000E946B2B60E085E090E00E946B2B60E0BA
:1021600086E090E00E946B2B6FEF87E090E00E948A
:102170006B2B40E050E0BA0188E090E00E947D2B9C
:1021800060E08DE090E00E946B2B40E050E0BA01EF
:1021900088E190E00E947D2B60E087E190E00E9462
:1021A0006B2B40E050E0BA018CE190E00E947D2B67
:1021B00070E060E080E290E00E94892B40E050E017
:1021C000BA0188E190E00E947D2B80E00E941E0C05
:1021D0000E94DF0C40E050E0BA018FE090E00E94E6
:1021E0007D2B40E050E0BA0183E190E00C947D2B20
:1021F0008B3109F476C040F58B3071F078F486307D
:1022000009F458C020F4853059F180E008958730F2
:1022100009F459C08830C9F781E00895803109F484
:102220006EC068F48E3089F79091F801892F8B7F0A
:1022300092FF84608093F80182FD5DC0EDCF86310E
:1022400059F3893149F3E1CF8A3289F1E0F48732D9
:1022500041F120F48E31C8F28D515DC08932A9F66A
:1022600080915B0290915C02892BB1F20E94B10DCA
:102270002FEF84E39CE0215080409040E1F700C0C4
:1022800000000E94A704833448F48A3308F042C057
:10229000853339F0883309F4BFCFB7CF833409F0E1
:1022A000B4CF81E00E9474090E94B10DB5CF0E94A5
:1022B0008E10B2CF8091F801807F8093F80181E089
:1022C0008093F70108959091F801892F8E7F90FFF8
:1022D00081608093F80180FD9FCF817F8093F8011A
:1022E0009BCF9091F801892F8D7F91FF8260809321
:1022F000F80181FF91CF8091F8018160EFCF90913B
:10230000F801892F877F93FF88608093F80183FD10
:10231000F2CF82CF895391E001C0990F8A95EAF7F5
:10232000892FC0CFCF93C82F882309F469C0823882
:10233000C1F40E94FF0481FD63C089E30E944D083F
:102340000E9498072FEF81EE94E02150804090404A
:10235000E1F700C0000089E30E944008CF910C948F
:1023600098078338A1F40E94FF0480FD49C083E5EB
:102370000E944D080E9498072FEF81EE94E02150B3
:1023800080409040E1F700C0000083E5E5CF84384D
:10239000A1F40E94FF0482FD33C087E40E944D082F
:1023A0000E9498072FEF81EE94E0215080409040EA
:1023B000E1F700C0000087E4CFCF8CEF8C0F813AAB
:1023C000B0F58091F701882391F08130D9F0109217
:1023D000F701EAE6F1E08191C81709F453C021E062
:1023E000E037F207C1F78C2F0E944D08B7CF8091DC
:1023F000BE03823271F78C2F0E94F810882349F3B4
:10240000CF9108958091BE038232A9F3C43161F067
:1024100028F4CB3039F080E08170F0CFC93221F060
:10242000C833C9F781E0F8CF1092F701F4CF80E20A
:102430008C0F883068F4C77021E030E001C0220FB3
:10244000CA95EAF78091BE03822B8093BE0386CFA4
:10245000EBE5EC0FE33040F4F0E0E85EFE4F808106
:1024600090E0CF910C94E904C85AC73148F6EC2F9C
:10247000F0E0EE0FFF1FE55EFE4F80819181CF916E
:102480000C94D3048C2F0E9440080E949807ABCF75
:10249000FF920F931F93CF93DF938C01EB01F42EE8
:1024A00080910E0182FF43C08B7F80930E0180914B
:1024B000E2032091E4033091E503AB01421B530B8F
:1024C0009A0140910C0150910D0124173507A8F491
:1024D0000E94921180910E018D7F80930E01809158
:1024E000DE039091DF030E94790A8091E2030E944B
:1024F0009A0982E00E94690724C09091BF0392600C
:102500009093BF030E94921180910E01826080938C
:102510000E018091DB0385FFE2CF86FDE0CFFF2037
:10252000F1F2DF91CF911F910F91FF900895802FCD
:102530000E949A098091E2039091E303801791072A
:10254000C1F20E949807D093E503C093E403E9CF5A
:102550001F93CF93DF93182FC091E003D091E10335
:10256000893321F0C091DE03D091DF03812F0E94D7
:102570009211209731F4812FDF91CF911F910C940C
:102580009A098FE99FE00197F1F700C000002197B9
:10259000F0CF0F931F93CF93DF93C42FD22FFC0163
:1025A00082818823A1F0409363020E94C704909324
:1025B000620280936102C77081E001C0880FCA95F2
:1025C000EAF7DF91CF911F910F910C949009109130
:1025D0006302141339C080916102909162020E94DB
:1025E000B8042091D8033091D9038217930760F57E
:1025F000C0E2CD0F1D17B9F080E2810F883040F4A2
:10260000177081E001C0880F1A95EAF70E948909C6
:10261000C83048F481E09D2F977001C0880F9A95CB
:10262000EAF70E949009802F0E94A812C83098F4FF
:10263000D77081E001C0880FDA95EAF7DF91CF917A
:102640001F910F910C948909C77081E001C0880F18
:10265000CA95EAF7F3CFDF91CF911F910F910895BB
:10266000AF92BF92CF92DF92EF92FF920F931F93A0
:10267000CF93DF93EC018AE0A82E2881222309F46E
:102680008CC02130C9F599818A81913021F422963C
:102690000E94A81205C0923029F422960E9492113D
:1026A0002196EBCF933021F422960E949A09F8CF1D
:1026B000943011F02196F4CF229630E020E0AE0164
:1026C0004F5F5F4F8053990B8A30910550F0215036
:1026D000310930F38FE99FE00197F1F700C0000066
:1026E000F6CFA29EB001A39E700D11249C01260F6F
:1026F000371F8981EA01E3CFE22FF0E0E059FE4F76
:10270000B490822F86958695869590E0FC01E05ADC
:10271000FE4FE4902770F12C022E02C0F594E7944E
:102720000A94E2F731E0E322FF24FC01E05BFE4F74
:10273000C490D12C022E02C0D594C7940A94E2F71B
:1027400031E0C322DD24FC01E05CFE4F049110E087
:1027500002C0159507952A95E2F701701127E1143B
:10276000F10419F081EE0E949211C114D10419F004
:1027700086EE0E9492118B2D0E94A812CD2819F08E
:1027800086EE0E949A09EF2819F081EE0E949A09BC
:10279000012B09F485CF8CE27BCFDF91CF911F9184
:1027A0000F91FF90EF90DF90CF90BF90AF90089582
:1027B0008F929F92AF92BF92CF92DF92EF92FF9251
:1027C0000F931F93CF93DF9300D000D0CDB7DEB728
:1027D0007C01DC0113964D915C91149711966C91DC
:1027E00011978C910E940B05811122C161E0C701F4
:1027F0000E94660B8C01F70182818111BAC0D7015A
:1028000012964C914111F7C00031BFE51B0709F446
:1028100096C10131EFE51E0709F495C1C80197552E
:102820008F3F910511F008F04BC020910001022E5E
:10283000000C330B2817390714F48093000126E1AC
:10284000289F5001299FB00C11249501225F3C4F15
:102850006901D90150964C935097F70192811696D1
:102860008C911697992309F470C11A961C930E93B4
:1028700019978F5F16968C930E94C704D6011E96F7
:102880009C938E931D978091D60117968C931797E2
:102890008091BF039091BE03892B18968C93189753
:1028A000ED91FC911197309739F054966D917C9190
:1028B000C5018C5E9C4F099510930D0300930C038A
:1028C0008091DB0380FF36C00E94C7046C01D701F2
:1028D00012968C91882311F180910E0182FF06C01F
:1028E00040E0B60190E080E00E94481282E00E9441
:1028F00069070B31BCE51B0709F435C10C31ECE568
:102900001E0709F482C190910E01892F8E7F90FFDE
:1029100081600A31FCE51F0709F47AC1083211050C
:1029200008F07CC10E31110508F0BFC1043011055B
:1029300008F087C1033FFCE51F0709F4EEC108F06A
:10294000D6C1083D3CE5130709F4E1C1093D4CE55A
:10295000140709F4F4C1073D5CE5150709F008C147
:1029600006E221EE41EE67ED7CE5C7010E94C91247
:1029700053C0809100018F3F09F441CF5EE0C52E26
:1029800053E0D52EB12CA12C992493948091000171
:10299000082E000C990B8A159B050CF430CFF6011C
:1029A0008681882309F1818592850817190739F4F2
:1029B00080910C0390910D0308171907A9F0D60117
:1029C0001F969C921F971C961C930E931B975196D3
:1029D0008C91811103C0C6010E94D407C6010696DE
:1029E0000E94F5071092BF03BFEFAB1ABB0AE6E1E6
:1029F000CE0ED11CCBCFC80182519F45409708F025
:102A00001AC58FEF93E00E945D2B4EEED42ED00EB0
:102A100009E312E0882349F18091D201877041F0E7
:102A2000D70112968C91882319F082E00E94370911
:102A30000F900F900F900F90DF91CF911F910F91FA
:102A4000FF90EF90DF90CF90BF90AF909F908F90CE
:102A500008950115F4E01F07F9F2C8010E945D2BEB
:102A6000811101C0DA940F5F1F4FD110F2CF19828C
:102A70001A821B821C82CC24CA9448012FEF821A2E
:102A8000920AC8010E945D2B89831A82882321F251
:102A9000813009F048C0580132E0A30EB11CC401D6
:102AA0000E945D2B982E8A83882309F4B5CFC50137
:102AB0000E945D2BD82E8FEF890D833068F458016A
:102AC00043E0A40EB11CDB82DD2021F0CE01019693
:102AD0000E9430138501D1CF54E09512FBCF5801ED
:102AE00084E0A80EB11CC80103960E945D2BDD2076
:102AF00009F492CF882309F48FCF8150990BC89E97
:102B00009001C99E300D1124AD2DA150BB0BCD01FC
:102B1000820F931F0197F0F2EFE9FFE03197F1F791
:102B200000C00000F7CFCE0101960E94301354017F
:102B3000D1CF81E00E9453090E9420096DCF81E02E
:102B40000E942B09F9CF82E0FBCF882309F4B8CE8D
:102B5000F9018189882309F4B3CEC5018C5E9C4FAD
:102B60000E94F507ADCE80910E01816080930E0129
:102B7000F7013281332309F46AC4109263020230F0
:102B8000FCE51F0708F495C406312CE5120730F068
:102B9000C8018A5F9C45099708F08BC40E948D0B81
:102BA0009093DC018093DB0100313CE5130709F4CD
:102BB00074C108F007C108305CE5150709F463C16A
:102BC00008F0D6C004309CE5190709F454C108F098
:102BD000BCC00230BCE51B0709F447C18091DB0192
:102BE000826003301C4509F443C16091DB01109100
:102BF000DC0184E090E00E946B2B612F82E290E088
:102C00000E946B2B0E94B10D07CF80910E018E7F29
:102C100080930E0182E00E946907AACF0933110553
:102C200060F40D32110520F40B32110509F082CE4B
:102C30008091DB0382FD7ECE08C004361105C1F30E
:102C400079CE8091DB0384FD75CED70112968C91ED
:102C5000882309F446C080910E0180FF6BCE9091CD
:102C6000DB0391FD04C02091BE03211163CE95FFCB
:102C700027C02091E4033091E503F601E21BF30B3A
:102C80009F0196FD02C081FD1BC02F3A3105C0F4A3
:102C90002091E2033091E3030217130789F481FDC9
:102CA00009C0802F0E949211B7CE8091DB0383FD73
:102CB00041CECBCF8091BF0382608093BF03F1CF21
:102CC0001093E3030093E203D092E503C092E40380
:102CD00080910E01846080930E0182E00E9437098A
:102CE0009BCE40E0B601C8010E94481295CE053F38
:102CF0008CE51807F1F0B8F0063FACE51A0709F0CB
:102D000037CF07E225EE46EE66EF7CE52ECE07E2F2
:102D100025EE45EE68ED7CE528CE06E221EE40EE9C
:102D200063EF7CE522CE07E225EE44EE64EF7CE51E
:102D30001CCE06E221EE42EE65EF7CE516CE08E2FF
:102D400021E045EE69ED7CE510CE8091DB018061EC
:102D50000630FCE51F0709F48BC08091DB01886019
:102D600007301C4508F484C08091DB01806280C07C
:102D70008091DB018D7F0C303CE5130709F478C0AE
:102D800070F48091DB018C600A305CE5150709F472
:102D90006FC008F47CC08091DB018E7F69C0809198
:102DA000DB01877F0E309CE5190709F461C0809133
:102DB000DB018B7F0F301C4508F45AC08091DB018A
:102DC0008F7E56C00B3FBCE51B0709F458C030F599
:102DD0000331FCE51F0709F468C078F401313CE5D4
:102DE000130709F45EC002311C4509F0FECE0E94B3
:102DF000B10D8091DB018F773BC005315CE5150794
:102E000009F45BC008F46FC08091DC0181600A3F67
:102E10001C4509F0EACE8093DC01E7CE0F3FACE51C
:102E20001A0709F446C088F48091DC018D7F0D3FBC
:102E3000ECE51E0781F38091DC018E7F0E3F1C457F
:102E400050F38091DC018360E6CF01302DE512075D
:102E500009F452C0F0F160E002301D4509F0C5CE22
:102E60008EE090E00E946B2BC0CE8091DB018160F0
:102E70008093DB01BACE8091DB018460F9CF809131
:102E8000DC018260C8CF8091DB018064F1CF0E94B9
:102E9000B10D8091DB018068EBCF8091DB018F7DEC
:102EA000E7CF8091DB018F7BE3CF8091DB01837FD4
:102EB000DFCF8091DC018C7FAECF8091DB0182FB84
:102EC000992790F921E0922790FB82F990FB83F9F2
:102ED000CFCF8091DC01982F909591708E7F892BB8
:102EE00090FB81F998CF0E94B10D9091DB01892F61
:102EF00097FB87F98058BCCF61E0B2CF8091700119
:102F0000811104C089E20E944008D0C285E3FBCF52
:102F10000B35BDE51B0701F10C351D4509F0DDC280
:102F20008091DC0182FB882780F991E089270E944B
:102F3000360CD3C20E94B10DFFEF24E33CE0F15008
:102F400020403040E1F700C000000E94A7040E942A
:102F50008E1062CD81E0EBCF80E0E9CF82810081ED
:102F60001181882369F0C8010E94F40AD82E682FC5
:102F7000C8010E94BE08B8018D2D0E94D80AB3C2B4
:102F8000C8010E949008D82EF6CF202F2F70C22E95
:102F9000802F807F19F0C29490EFC922BB20C9F026
:102FA000CC2069F080E2810F883010F011110BC045
:102FB0008091BE03C82AC092BE030E949807812F49
:102FC0000E94921116C08091BF03C82AC092BF030D
:102FD000F4CF812F0E949A09CC2059F080E2810F12
:102FE000883010F0111133C08C2D0E9470070E94A0
:102FF0009807A92DA850BB0B149710F40E94FF044A
:10300000812F902F0E94EF088111F6C1109272015A
:1030100010927101AA20B1F08091D20180FD12C0FE
:10302000D70112961C928595859585950E94530926
:10303000C7010E94D8138091D20185958595859509
:103040000E942B0960E0C7010E94660BF1CC8C2D19
:103050000E946907CCCF302F3F70C32E802F807F16
:10306000803219F0C29480EFC822112321F111306F
:1030700009F46DC0BB2009F476C0DD2009F448C016
:1030800020E0D7014C9111965C91119712966C91AA
:10309000129713967C91139714968C910E943D0B76
:1030A0008091DD0381FD8BCFF701858180FF87CF84
:1030B0008F7085832DC0BB2069F1D11006C080912F
:1030C000D6018C290E94900994CF41E0D41213C0FC
:1030D0008091DC0182FD8DCF8091D601C82AC8166F
:1030E00009F487CF0E94C7049093D5018093D4013F
:1030F000C092D6017ECF8091DC03823000F3D812DB
:10310000DECF0E945E078091CF01C812C092CF012E
:103110008C2DD8CFD11006C00E945E078C2D0E9446
:10312000890967CF8091DC0351E0D5120BC0823052
:1031300008F45FCF8091BE038C2109F45ACF0E941E
:103140003A08EACF823040F3D812E6CF52CFBB2004
:1031500029F083E08D1508F44CCFDACF92E09D156D
:1031600008F447CFDBCFDD20C9F28091E0039091D6
:10317000E103193321F08091DE039091DF030E9477
:10318000790A812F0E949A0934CF802F86958695DF
:10319000837069F0813009F02CCF812F902F9370CC
:1031A000B11002C090E080E00E94D30422CF812FB2
:1031B000902F9370B11002C090E080E00E94E9046B
:1031C00018CF802F837091F5B11013CF412F429506
:1031D00046954770440F440F812F8F70042E01C015
:1031E000880F0A94EAF7212F207114FF07C02FE0FF
:1031F00030E001C0220F4A95EAF72095302F36952E
:1032000036953370323069F050F44091D701313047
:1032100029F0822B84230E947409EBCE842B822B0D
:10322000FACF282B8091D7018227F5CF8695BB2036
:1032300011F0802F8170882309F4DBCE412F429555
:1032400046954770440F440F812F8F70042E01C0A4
:10325000880F0A94EAF7212F207114FF07C02FE08E
:1032600030E001C0220F4A95EAF72095302F3695BD
:1032700036953370323069F050F440910B043130A0
:1032800029F0822B84230E941C09B3CE842B822B2D
:10329000FACF282B80910B048227F5CFF02FFF70F7
:1032A000CF2EBB2029F08F2F0E945309812F0ACFE8
:1032B000812F0E9489098C2D0E942B099ACE123FE2
:1032C00009F44AC060F4103F41F1113FE9F1BB201D
:1032D00009F48DC0D11073CE802F8F713AC0133F87
:1032E00009F43FC0143F99F72091DC03223008F421
:1032F00066C08091CF01BB2009F44EC00E947007C8
:103300008091D20187708430C1F50E947707802FA9
:103310008F710E942B09A12C6CCEBB2081F022E082
:103320002D1508F466CE202F2F7181E090E001C0AA
:10333000880F2A95EAF790910B048927A4CF33E0F0
:103340003D1508F456CEEFCF802F8F71BB2009F4C6
:10335000B3CF0E9453094DCE802F8F71BB20C9F38C
:10336000ABCF80E0BB2009F48ECF81E0902F9F711E
:1033700001C0880F9A95EAF786CF8091DC03D816B2
:1033800050F6402F4F71C42E842F0E94530963E0E2
:103390008C2D0E945E09BFCF9091BE03982B909315
:1033A000BE03D21640F00E9477070E943A0864E0FC
:1033B000802F8F71EECF81E00E943709ACCFBB2008
:1033C00059F0502F5F71C52E852F0E94530963E07D
:1033D0008C2D0E945E090DCE81E00E94370981E0AC
:1033E0008D1508F006CE82E00E94370902CED1107A
:1033F000BCCE802F8F7160CFBB2019F0D11006CECC
:1034000009CED11003CE20E0F701408151816281C5
:10341000738184810E943D0B8091DD0383FFF6CD93
:103420008091710190917201029709F0EFCD812F87
:103430000E94A812EBCD0031FFE51F0709F479CBFC
:1034400001312FE5120709F0E9C982E073CB06319B
:103450001C4509F042C08091BE03982F9A7A2091B2
:10346000DA0320FF04C0482F447409F090E021FFE4
:1034700004C0482F417109F090E022FF04C0482F9A
:10348000487809F090E023FF03C0827209F090E0D1
:10349000332309F433CD81E0911101C080E08093A2
:1034A000700189E2911185E30E944D080E949807FE
:1034B000B3CA06315CE5150771F20A355DE51507FB
:1034C00009F448CD08F024CD01159CE5190709F44D
:1034D00031CD0E3D1C4509F43ACDF7018681978127
:1034E000009709F43BCD0E94BA05182F092FF70168
:1034F000B280D580D2943FE0D3228091D2018770F0
:10350000A1F0AB2CBB2091F0892F807F803421F07B
:1035100080E2810F883048F082E00E943709809174
:10352000D2018770AA24A3948111A12C902E929489
:103530002FE09222FBE0F91508F45BCDE92DF0E0D5
:10354000EF53F44D0C941A2BCF92DF92EF92FF922F
:103550000F931F93CF93DF9380918A01807F31F483
:1035600080918701C091CE0181110BC0DF91CF9175
:103570001F910F91FF90EF90DF90CF9008952196CB
:10358000C77080918D018C1789F3F0908501E090D0
:103590008601C0908801D0908901A6016E2D8F2DE3
:1035A0000E940B05D0E08111EACF8E0183E0000F6D
:1035B000111F8A95E1F7F801E257FE4F81818E11C4
:1035C000DECF80818F11DBCF82818111D8CFE38064
:1035D000F480EC18FD0860E085E891E00E94660B3D
:1035E0008091D8039091D903E816F90640F68091AE
:1035F0008A018F70806180938A01F801ED56FE4F39
:1036000080818F708061808385E891E00E94D8136B
:10361000DF91CF911F910F91FF90EF90DF90CF90AE
:103620000C9486085F926F927F928F929F92AF92D6
:10363000BF92CF92DF92EF92FF920F931F93CF939F
:10364000DF93CDB7DEB765970FB6F894DEBF0FBE38
:10365000CDBF8C0185E0F801DE01519601900D92FD
:103660008A95E1F7D8011296EC9085E8A82E81E0C2
:10367000B82E8090880190908901A4016091860104
:10368000809185010E940B058111EAC1F801C38078
:10369000D480F0908701C601881999094C01FF2058
:1036A00009F47AC15080618060E0C5010E94660B18
:1036B0008091D8039091D90370908A018816990659
:1036C00008F01DC14091880150918901B090850199
:1036D000A0908601872D807F6A2D09F0B7C08B2DC1
:1036E0000E940B05FE2C811139C0D80111968C91D6
:1036F00011978A1133C08C918B1130C020918B01AE
:1037000030918C0116968D919C912817390731F5CF
:10371000E11024C0872D8F70806180938A0185E835
:1037200091E00E94D81380918A01F80185838F2D42
:1037300065960FB6F894DEBF0FBECDBFDF91CF9177
:103740001F910F91FF90EF90DF90CF90BF90AF90BF
:103750009F908F907F906F905F90089560E085E8D4
:1037600091E00E94660B8091D8039091D903843F29
:103770009140F8F0A601662D852D0E940B05811160
:103780004CC081E08E2580FF1DC04E2D662D852DFD
:103790000E9466088823B1F085E891E00E94D81362
:1037A00088E0E5E8F1E0DF011D928A95E9F7F12C68
:1037B000BECF60E085E891E00E94660B8091DD035A
:1037C00080FDD8CFA601662D852D0E940B058111A5
:1037D00026C081E08E25B82FB170CB2E80FF2DC082
:1037E0004E2D662D852D0E946608D82E811125C08C
:1037F000598A6A8A89899A890E94230B292F2295DE
:103800002F70223070F0243098F49F7071F0F8011E
:103810009581907F51F4FD2C8ACF80E0B4CF80E079
:10382000DACF9F7011F08823B1F3805E883098F36F
:10383000C8010E94D813DC2CEECFEE2009F477CF1C
:1038400080918A01816080938A01B1CF8B2D0E9483
:103850000B05811124C0D80111968C9111978A1102
:103860001EC08C918B111BC020918B0130918C015B
:1038700016968D919C9117972817390781F4E110BE
:103880000EC015967C92C8010E94D81388E0F801FA
:10389000A5E8B1E001900D928A95E1F748CFC80103
:1038A0000E942F0B882339F1EE2029F180918A01A3
:1038B0008032A0F020918501309186013A872987D6
:1038C0001B86DD86CC868E8780918B0190918C0142
:1038D000988B8F87CE0109960E94D81388E0F80153
:1038E000A5E8B1E001900D928A95E1F70E94A41A33
:1038F000FF24F3941CCFC8010E94D813F9CF872D61
:10390000807F09F449CF9090850180908601409195
:10391000880150918901682D892D0E940B05811124
:103920001CC0F8018181881118C08081891115C0DF
:1039300020918B0130918C0186819781281739075E
:1039400061F4E1100AC07582C8010E94D81388E0B2
:10395000D5011D928A95E9F7EACEC8010E942F0B86
:10396000882349F2EE2039F280918A01803208F4EE
:10397000B5CF20918501309186013A8329831B823E
:10398000DD82CC828E8380918B0190918C0198870F
:103990008F83CE010196A0CF60E085E891E00E9480
:1039A000660B8091D8039091D9038816990608F088
:1039B00051C0FE2CEE2009F49ECFE0908501D090FE
:1039C000860140918801509189016D2D8E2D0E94B4
:1039D0000B05811131C0F80181818D112DC08081CD
:1039E0008E112AC020918B0130918C0186819781A4
:1039F0002817390709F560E085E891E00E94660B19
:103A00008091DD0382FD42CF90918A0190FD3ECFEF
:103A1000907F09F43BCF80918A01D80115968C9351
:103A20001597903F09F42FCF982F907F905F8F705C
:103A3000892B15968C9327CFC8010E942F0B8111DB
:103A40004DCF80918A01816080938A01C8010E94D4
:103A5000D8136DCE88E0F50111928A95E9F767CE0B
:103A6000EE2009F448CFC8010E942F0BF82E8823BE
:103A700009F441CF88E0F801A5E8B1E001900D928A
:103A80008A95E1F780918501909186010E94230B30
:103A90000E94A41A4CCECF93DF93CDB7DEB76097C8
:103AA0000FB6F894DEBF0FBECDBF29873A874B878C
:103AB0005C876D877E878F87988BCE0109960E94E1
:103AC000121B81112FC088E0FE013996DE0111968C
:103AD00001900D928A95E1F74C855D856A8589850F
:103AE0000E940B0581111EC0A0918D01B0E0CD0197
:103AF0000196877099272091CE012817190609F1A0
:103B000093E0AA0FBB1F9A95E1F7A257BE4F98E02A
:103B1000FE01319601900D929A95E1F780938D0107
:103B20000E9486088091CE0190918D01891317C063
:103B300060960FB6F894DEBF0FBECDBFDF91CF9178
:103B400008950E94B10D10928D011092CE0188E06F
:103B5000E5E8F1E0DF011D928A95E9F7E3CFB8E0EF
:103B60008B9FC001112482579E4F0E94121B8823F5
:103B7000F9F28091CE0190E00196877099278093A9
:103B8000CE01D0CFEF92FF920F931F93CF93DF938D
:103B900080916702882361F0C09166028CE0F82E64
:103BA00080916702C81758F010926702109266025F
:103BB000DF91CF911F910F91FF90EF900895EE2428
:103BC000E394EC0EE09266020C2F10E0CF9DE00132
:103BD0001124C859DD4F4B815C81698188810E9425
:103BE0000B0581111BC08E819F81892B21F4888553
:103BF0009985019651F4288139814A815B816C81D4
:103C00007D818E819F810E944B1DF09EF001F19E6F
:103C1000F00D1124E859FD4F14821382CE2DC0CF30
:103C200010920B0310920A0310920B01809109036A
:103C3000809308030E9444050C94C21D3F924F924A
:103C40005F926F927F928F929F92AF92BF92CF922C
:103C5000DF92EF92FF920F931F93CF93DF93C09168
:103C6000080397E0892E01E010E02CE0322E3EEFB1
:103C7000932E44244394809109038C1315C00E9411
:103C8000C21DDF91CF911F910F91FF90EF90DF90B8
:103C9000CF90BF90AF909F908F907F906F905F90EC
:103CA0004F903F900C944405D0E0FE01EE0FFF1FB3
:103CB000E050FD4F80819181889ED001899EB00D9A
:103CC0001124A853BD4F14962C911497211157C05D
:103CD00050906702E8E6F2E030E020E0712C5D01F0
:103CE000251508F04AC0E284F384D501CD90DC901C
:103CF0006FEF7FEF612C462D50E0DA01AA0FBB1F5A
:103D0000AC0DBD1D0D90BC91A02D109731F0EA16A1
:103D1000FB0609F4BA016394EECF6F3F7607A1F179
:103D2000D80102C0AA0FBB1F6A95E2F77A2AB80130
:103D300002C0660F771F6A94E2F7AB014150510948
:103D400074161506F9F4329EF001339EF00D11241D
:103D5000E859FD4F889ED001899EB00D1124A853CB
:103D6000BD4F12962D913C911397378326839082F5
:103D700091829187808715964C920E941605219614
:103D8000C37079CF148213822F5F3F4F3C96A8CF28
:103D90009F92AF92BF92CF92DF92EF92FF920F93DA
:103DA0001F93CF93DF9300D000D000D00F92CDB7F8
:103DB000DEB78E010F5F1F4F87E0F80111928A95E1
:103DC000E9F799E4C92E91E0D92EF12CE12CAA242F
:103DD000A394B12CF60181916F018F3F09F449C082
:103DE000F894E82FE295EF70F0E021A18F70A50123
:103DF00002C0440F551F8A95E2F7CA01922F982BF3
:103E000091A392A18095892382A3789400C0E0E5D4
:103E1000F1E030E020E0912C41914F3F09F477C070
:103E2000A42FA295AF70B0E090968C9190E04F7067
:103E300002C0959587954A95E2F780FD68C08A2D66
:103E4000022E01C0880F0A94EAF7982A2F5F3F4F8D
:103E50002630310509F7F601319780818F3F11F047
:103E60000E94600550EA5A95F1F7F801EE0DFF1D2A
:103E700090828FEFE81AF80AE7E0EE16F10409F0F5
:103E8000A9CF47E050E0B8018DED91E00E94302BC2
:103E9000BB24B394009709F4B12C892BD1F187E0AE
:103EA000F801ADEDB1E001900D928A95E1F781E066
:103EB0008093DA010E94C7049093D9018093D801BE
:103EC0008091D8019091D9010E94B804059728F1FA
:103ED0008091DD018093F0018091DE018093F101FA
:103EE0008091DF018093F2018091E0018093F301E2
:103EF0008091E1018093F4018091E2018093F501CA
:103F00008091E3018093F6011092DA0106C080E00F
:103F10009CCF8091DA018111D3CF809100018F3F36
:103F200009F076C080910B01811176C08091DB038E
:103F300080FF1CC080910E0182FF18C00E94C70440
:103F40002091E4033091E503AC01421B530B209117
:103F50000C0130910D014217530740F041E0BC01C4
:103F60008091E2039091E3030E9448128B2D2796E3
:103F70000FB6F894DEBF0FBECDBFDF91CF911F917A
:103F80000F91FF90EF90DF90CF90BF90AF909F90F8
:103F90000895E29EF001E39EF00D1124E25FFC4FD4
:103FA000C288D388C114D10421F4C090D803D09022
:103FB000D903E29E8001E39E100D1124025F1C4F85
:103FC000F80186818823C1F0858596850E94B80412
:103FD000C816D90688F4FE9C60011124F801818975
:103FE000811105C0C601825F9C4F0E94D407C601A3
:103FF0008C5E9C4F0E94F507F3942F2D30E080914A
:104000000001082E000C990B8217930714F68ACF33
:10401000F12C86E1E82EF1CF80910A0390910B03F9
:10402000009709F483CF0E94B80420916402309174
:1040300065022817390708F079CF9091080380911D
:104040000903981759F00E941E1E109265021092E3
:10405000640210920B0310920A0368CF0E94C21DE3
:1040600010920B0310920A030E9444055FCF2F9217
:104070003F924F925F926F927F928F929F92AF92F8
:10408000BF92CF92DF92EF92FF920F931F93CF9345
:10409000DF93CDB7DEB769970FB6F894DEBF0FBEDA
:1040A000CDBF942F498B252F5A8B6B8B7C8B8D8B9F
:1040B0004C895D89622F892F0E940B05811109C0EF
:1040C0008091710190917201019690937201809399
:1040D00071018B8981111092BF031D861E861F8678
:1040E000188A85E0FE017196DE01199601900D9205
:1040F0008A95E1F78091C2039091C303892BC1F0A7
:104100000E94C7042091D0013091D101821B930BF2
:104110002091C2033091C3038217930720F080914E
:10412000D20182FFF5C10E947E0781110E945E07C5
:104130004C855D856A8589850E940B05811111C0BA
:1041400061E0CE0109960E94660B6C018B8527EF1A
:10415000C2162CE5D20681F4882321F181E08093F8
:104160000B0129853A854B855C856D857E858F851C
:1041700098890E944B1DC5C038EFC3163CE5D30695
:1041800029F4882379F00E94101EEBCF49EFC41662
:104190004CE5D40639F4882329F080910B01811174
:1041A000F2CFDCCF08EC12E0512CB12CA12C222450
:1041B0002394312C2EEF422EF80140815181882426
:1041C0008A94982C20E0822F90E0FC01EE0FFF1FD4
:1041D000E40FF51F608171816115710531F0C6161C
:1041E000D70609F44C012F5FEECFF12CFFEF8F16AD
:1041F0009F0609F448C0F8014481F0900B018F2D0F
:10420000411180E0F82FF170FF2EF801E5808681E2
:104210009B85992309F40CC1FF2009F409C1609022
:10422000D6037090D703E11012C0A10101C0440F62
:104230008A94EAF7842B86838091640290916502C8
:104240008615970520F47092650260926402C101A0
:1042500002C0880F991F2A95E2F70197F80126817D
:104260002817190681F480910A0390910B03009797
:1042700009F460C00E94B8046816790608F05AC0B4
:1042800021E0F80124835F28FFEFAF1ABF0A095F1E
:104290001F4F28E0A216B10409F08ECF8B8588232A
:1042A00009F421C1552009F41EC10E94C70490934E
:1042B0000B0380930A0380916702883010F591E028
:1042C000980F9093670298E0FE013996DE011196EF
:1042D00001900D929A95E1F73CE0839FC001112473
:1042E00088599D4F28E0FE013196DC0101900D9226
:1042F0002A95E1F72FEF3FEFFC0131872087D38626
:10430000C28669960FB6F894DEBF0FBECDBFDF91AF
:10431000CF911F910F91FF90EF90DF90CF90BF90C2
:10432000AF909F908F907F906F905F904F903F9055
:104330002F9008958091080350910903982FF0E081
:10434000E0E0851314C090930803E017F10709F427
:104350009ACF90E0FC01EE0FFF1FE050FD4FB182BD
:10436000A082019683709927809309038CCF682ED1
:10437000712CF301EE0FFF1FE050FD4F20813181C2
:1043800047E0429FD001439FB00D1124A853BD4F79
:104390006D917C911197798F688F40E020E030E03B
:1043A000E32FF0E0EE0FFF1F688D798DE60FF71F0A
:1043B0008080918081149104E1F0F8010190F081F6
:1043C000E02DFF8BEE8B20E005C08616970609F4E2
:1043D0004F2D2F5FE22FF0E0EE0FFF1F6E897F89D8
:1043E000E60FF71F608171816115710571F73F5FFD
:1043F000D7CF4423D1F0F801231708F0FD0121E0C5
:1044000024830E171F0721F490930803F42E3BCF4B
:10441000981305C0AE17BF0711F49F5F9370930107
:104420002F5F3F4F822F83708CCFF0E0E0E0F7CF1B
:1044300090E0E1101FC0B10102C0660F771F2A95FE
:10444000E2F79B01215031098217930731F444238D
:1044500009F447C0C5010E941605C10101C0880FBB
:104460008A94EAF7982F9095F801868189238683AC
:10447000FE2C09CF9C01082C02C0359527950A9483
:10448000E2F7A90141705527BC01615071098623EB
:104490009723892B11F5452B01F1F8018281938136
:1044A000892BC1F01B821C821D821E8249824A8296
:1044B0000E94C7048160582F9D838C83F8018281FC
:1044C00093818F83988729813A814B816D817E8189
:1044D0000E944B1DF8011582C0CFF22FF170EF2E14
:1044E000BCCFEF2CBACF90910803809109039817A5
:1044F00031F00E941E1E552009F433CE02CF0E94D7
:10450000C21D10920B0310920A030E944405F3CFC0
:1045100082E00E94370907CE0F931F93CF93DF935A
:1045200000D000D00F92CDB7DEB78C0190935E0221
:1045300080935D02011580E2180720F5802F0E940C
:104540009A09C8010E94E9099801205E31092830C2
:10455000310510F0012B59F40F900F900F900F9030
:104560000F90DF91CF911F910F910C9489090F90BB
:104570000F900F900F900F90DF91CF911F910F919F
:104580000C9478098EEF89838A831B820E94C7046A
:104590008160782F9D838C8349815A816B818D81C5
:1045A0000F900F900F900F900F90DF91CF911F9170
:1045B0000F910C9437200F931F93CF93DF938C01AF
:1045C000EB0161E072E08C2F0E94EE0C892BA1F4CC
:1045D0008091DE039091DF030E94790ADD27C750A6
:1045E000DE4F8881F80110821882833009F148F487
:1045F000813059F0823081F0DF91CF911F910F917E
:1046000008958430D1F08530B9F7809101029091FE
:104610000202009789F306C0809103029091040280
:10462000009799F3DF91CF911F910F910C948C22F9
:104630008091050290910602F3CF8091070290913C
:104640000802009779F720910102309102028091CF
:1046500003029091040221153105D9F2009711F758
:10466000C901E0CF0F931F93CF93DF9300D000D009
:104670000F92CDB7DEB78C0190935E0280935D02FE
:10468000011580E21807E8F4C8010E94E9099801C1
:10469000205E31092830310518F00115110571F43B
:1046A0000E949009802F0F900F900F900F900F9005
:1046B000DF91CF911F910F910C9492110E947F096D
:1046C000F1CF8EEF89838A8381E08B830E94C704B8
:1046D0008160782F9D838C8349815A816B818D8184
:1046E0000F900F900F900F900F90DF91CF911F912F
:1046F0000F910C943720CF93DF93EC010E9432236B
:104700008091DE039091DF030E94790ACE01DF9150
:10471000CF910C948C220F931F93CF93DF938C0136
:10472000862F61E072E00E94EE0C892BC9F4C091E3
:104730000102D0910202209799F0F8018081833024
:1047400069F4CE010E947B23CE010E947B23CE011F
:10475000DF91CF911F910F910C947B238430B8F798
:10476000DF91CF911F910F9108950F931F93CF93D6
:10477000DF938C01EB0161E072E08C2F0E94EE0C64
:10478000892B09F064C0FE01FF27D8018C91E75006
:10479000FE4F8130D9F419969C911997992311F005
:1047A00080830CC01A969C919923D1F382E0808378
:1047B00080910302909104020097D9F48091010244
:1047C00090910202009709F442C013C08230E9F5CB
:1047D00019968C91199781112DC01A968C9181117F
:1047E0000EC083E0808380910502909106020097BD
:1047F00019F1DF91CF911F910F910C94322384E036
:1048000080838091070290910802009791F7809130
:104810000102909102020097F9F00E947B2380919F
:10482000030290910402009721F780910102909178
:104830000202DFCF85E08083809101029091020225
:10484000009729F00E947B23F0CF86E08083DF91E0
:10485000CF911F910F9108958091030290910402CE
:10486000B1CF1F920F920FB60F9211242F933F9347
:104870004F935F936F937F938F939F93AF93BF9368
:10488000CF93DF93EF93FF93D091E900DF70809196
:10489000EC00C82FC17080FDC0E81092E900809143
:1048A000F000877F8093F00078940E94BC0D1092F6
:1048B000E9008091F00088608093F000CD2BCF70EC
:1048C000C093E900FF91EF91DF91CF91BF91AF913C
:1048D0009F918F917F916F915F914F913F912F9118
:1048E0000F900FBE0F901F9018951F920F920FB64A
:1048F0000F9211242F933F934F935F936F937F9366
:104900008F939F93AF93BF93EF93FF938091E100B9
:1049100082FF09C08091E20082FF05C08091E10022
:104920008B7F8093E1008091DA0080FF24C080912A
:10493000D80080FF20C08091DA008E7F8093DA005B
:104940008091D90080FF9BC080E189BD82E189BD53
:1049500009B400FEFDCF81E080930A048091F40346
:10496000811109C00E94F1020E94E4038091E200DB
:1049700084608093E2008091E10080FF17C0809105
:10498000E20080FF13C08091E2008E7F8093E200FE
:104990008091E20080618093E2008091D800806283
:1049A0008093D80019BC85E080930A048091E100CF
:1049B00084FF29C08091E20084FF25C080E189BD89
:1049C00082E189BD89B5982F917080FFFBCF8091DE
:1049D000D8008F7D8093D8008091E1008F7E8093F6
:1049E000E1008091E2008F7E8093E2008091E200FE
:1049F00081608093E20080910104882309F445C01E
:104A000084E080930A048091E10083FF27C08091B5
:104A1000E20083FF23C08091E100877F8093E10063
:104A200082E080930A04109201048091E1008E7F5D
:104A30008093E1008091E2008E7F8093E20080917C
:104A4000E20080618093E20042E060E080E00E944A
:104A5000B2038091F00088608093F000FF91EF91A5
:104A6000BF91AF919F918F917F916F915F914F9186
:104A70003F912F910F900FBE0F901F90189519BC6A
:104A800010920A041092F40376CF8091E30087FD20
:104A900093E090930A04B7CF78941F921FB61F92A9
:104AA00011248F939F93AF93BF938091ED039091C7
:104AB000EE03A091EF03B091F0030196A11DB11D8B
:104AC0008093ED039093EE03A093EF03B093F00374
:104AD000BF91AF919F918F911F901FBE1F9018950E
:104AE0001F921FB61F9211248F939F93AF93BF9372
:104AF0008091EC03811113C08091ED039091EE033E
:104B0000A091EF03B091F0034196A11DB11D8093D8
:104B1000ED039093EE03A093EF03B093F003BF91E6
:104B2000AF919F918F911F901FBE1F901895CDB789
:104B3000DEB7E5970FB6F894DEBF0FBECDBF84B7E2
:104B4000877F84BF0FB6F894A89580916000886134
:104B500080936000109260000FBE80E890E00FB676
:104B6000F89480936100909361000FBE85B78068D0
:104B700085BF85B7806885BF8EE595E09093670116
:104B8000809366010E94020D0E94580D0E94830AC4
:104B90000E94F1020E94E4038091E200846080930D
:104BA000E200789480910A048823A1F01091E90032
:104BB0001F709091EC00892F817090FD80E8182B78
:104BC0001092E9008091E80083FD0E94BC0D1F70E7
:104BD0001093E90082E084BD93E095BD9AEF97BD04
:104BE00080936E000E94740B811102C00E94DF0C42
:104BF00009E411E060E5E62E61E0F62ED8018D9122
:104C00008D018F3F11F00E946005E016F106B1F7AB
:104C100000E511E056E5E52E51E0F52EF801819111
:104C20008F018F3F11F00E946005E016F106B1F789
:104C3000EDEDF1E0A0EFB1E011921D9221E0E43E34
:104C4000F207D1F790E080E00E94652B8A3E9E4FEC
:104C500021F40E94740B811102C00E948E1082E028
:104C600090E00E945D2B8093F8010E948D0B909341
:104C7000DC018093DB010E94C81E8FE39CE9019751
:104C8000F1F700C000000E94C81E8091F00180FF73
:104C900008C06FEF7FEF90E080E00E94892B0E94B8
:104CA000A70483E090E00E945D2B0E94740981E0DC
:104CB00091E09093E9038093E80348E1242E312C9E
:104CC00080EF91E0A7E0A80FADAB80910A0400E16E
:104CD00012E1853009F4B6C00E94C81E882359F03D
:104CE0008FB7F8944091ED035091EE036091EF037C
:104CF0007091F0038FBFE5EEF1E0A0EFB1E010E0BE
:104D000000E0302F8D919191981709F4AAC0292FB6
:104D1000282790E0FF24F394422F4F2109F49CC0F0
:104D20009BA73CA78F2191E009F490E09DA70E94EA
:104D3000C7048160782F9FA78EA74BA55CA56DA5A2
:104D40008FA50E943720F801EB51FE4F8081F82695
:104D5000F0820E94FF049091E401891721F00E94E3
:104D6000FF048093E40180910A04843009F0ADCF00
:104D700083E08093E9008091E80082FFA6CF8091D4
:104D8000E80090E085FF06C00E941003882309F424
:104D90007FC091E08091E8008B778093E8009923B1
:104DA00009F493CF00915F0210916002898101158F
:104DB000110509F489C08E3F09F016C18A8183303C
:104DC00020F08550833008F00FC1EA81EE3008F002
:104DD0000BC1F0E0E353F44D0C941A2B80910A04BC
:104DE000843011F11092EC03B0E40FB6F894A8955A
:104DF000209260000FBEB093600083B7817F846013
:104E000083BF83B7816083BF7894889583B78E7F93
:104E100083BF0FB6F894A895809160008861809355
:104E20006000109260000FBE80910004882351F052
:104E30000E94C81EE0EFF1E081918111A5C32DA968
:104E40002E13FACF80910A04853009F4C7CF0E944F
:104E5000B10D0E94FF0440CF9F5FFF0C963009F018
:104E60005BCF0F5F1F4F0730110509F04ACF8FEF5F
:104E700088AB89AB1AAA0E94C7048160782F9CABCB
:104E80008BAB48A959A96AA98CA90E94372061CF88
:104E900000E210E0CE0101967C018091E80085FDE2
:104EA0000AC08091E8008B778093E8000E9410038D
:104EB000882399F36ECF8091F100D7018D937D0106
:104EC0000150110951F765CF8C3009F4D6C050F567
:104ED000843009F4B9C050F4823009F46BC008F092
:104EE000A4C0813009F462C08FEF7AC3863009F420
:104EF000C1C008F4B4C08B30B9F780915B029091C7
:104F00005C02892B09F470C0CE0101960E946B03EC
:104F1000FFEF21EE34E0F15020403040E1F700C0D7
:104F20000000BDCE803109F4DBC0A0F58E3009F45D
:104F3000ABC008F4A5C080915B0290915C02892B04
:104F400009F452C08C81C82ED12C2DE1C216D10497
:104F500008F04AC0EA80FB80FE24EF24FE248E0184
:104F60000F5F1F4FC00ED11EC701875C9D4FC0163B
:104F7000D106D1F137ECE31631E0F30628F4D8017D
:104F800014966C910E946B2B0F5F1F4FBFEFEB1AB3
:104F9000FB0AEACF823109F4A8C008F4A4C0833127
:104FA00009F4CEC08E3F09F09FCF0FCF1A8289E05F
:104FB0008B831AC08A81823009F434C38330C9F0EC
:104FC000813009F091CF2FB7F8946091ED03709183
:104FD000EE038091EF039091F0032FBF0E94202BEE
:104FE0006B837C838D839E83CE0101960E946B032D
:104FF0006CCE80915B0290915C02892BA9F3809129
:10500000F0018B838091F1018C838091F2018D837B
:105010008091F3018E838091F4018F838091F5015B
:1050200088878091F6018987DFCF8A81823009F0F5
:105030005BCF6B817C818D819E810E94202B86E2DB
:1050400090E00E946B2BD0CF4C816B818A810E94B3
:10505000A90A9827892798279E838D83C5CF2D81FC
:105060003E813227232732274C816B818A810E941F
:10507000E90BBACF0E94500CB7CF80E18A83B4CF3E
:1050800081E08A8387EC94CF8C81C82ED12CBDE13E
:10509000CB16D10408F0A8CFEA80FB80FE24EF24D1
:1050A000FE248E010F5F1F4FC00ED11EC701875C0B
:1050B0009D4FC016D10609F497CFE7ECEE16E1E05C
:1050C000FE0658F40E945D2BD80114968C93FFEFD6
:1050D000EF1AFF0A0F5F1F4FE9CFF8011482F7CFD5
:1050E0000E94D90B81CF84E0C9CF8C81C82ED12CEE
:1050F000EDE1CE16D10408F077CFEA80FB80FE24E4
:10510000EF24FE248E010F5F1F4FC00ED11EC7017A
:1051100087960C151D0509F467CFF0E5EF16F1E051
:10512000FF0658F40E945D2BD80114968C93FFEF74
:10513000EF1AFF0A0F5F1F4FEACFF8011482F7CF73
:10514000EC80F12C2DE1E216F10408F04DCF0A813C
:105150001B81102701271027003531E0130708F0C5
:1051600043CF80E591E0801B910B8E159F0508F4DD
:105170003BCF480147E2840E911C80915B029091E5
:105180005C023701600E711E892BB9F5680181E060
:10519000C822DD2400FF0DC0C80186960E945D2B49
:1051A0009D8189279827892781159C4511F48FEFC8
:1051B0008D83570160FE17C0B1E0AB1AB10835E02E
:1051C000432E512C4C0E5D1E4A0C5B1CC4018E0DEF
:1051D0009F1D0E945D2BF201908181159C4519F461
:1051E0008FEFD2018C93E1E0F0E0EC0FFD1FEC0DAE
:1051F000FD1D2FEFCA14DB0420F0FE0131967F0164
:105200001AC09481858181159C4511F424832583DE
:1052100032E0C30ED11C3296EDCF003541E01407C9
:1052200028F4D70114966C910E946B2BBFEFEB1AF8
:10523000FB0A0F5F1F4FC80187960615170569F710
:10524000D3CE88E0E0E1F1E0DE01919601900D928D
:105250008A95E1F780E2FE013196DF011D928A9581
:10526000E9F784E0898388E0B096DE011596019025
:105270000D928A95E1F7B8CE80E6898381E08A8332
:105280001B821C82B1CE8C81682F70E0762F66273E
:105290008B81860F972F911D092E000CAA0BBB0B3B
:1052A00025E0880F991FAA1FBB1F2A95D1F7AC01D3
:1052B000BD01405E5F4F6F4F7F4F481759076A0728
:1052C0007B0708F491CE8036E1E09E07A105B10589
:1052D00008F08ACE4136F1E05F076105710520F0E4
:1052E00040E651E060E070E0481B590BBC016051A2
:1052F0007E4FCE0101960E94272B76CE4AE150E0E8
:105300006FEF70E0CE0107960E94462B80915B0202
:1053100089830A831B821C8285E08D838E8364CE01
:1053200081E090E09093600280935F0282E390E0DE
:105330009093EF018093EE010E94C7049093ED01DA
:105340008093EC0151CE012B61F11091F00100919D
:10535000F5018091EC019091ED010E94B804853631
:10536000910540F105FF26C010FF24C00E94C7042C
:105370009093ED018093EC018091EE019091EF010B
:1053800001979093EF018093EE01892B51F41092D5
:10539000600210925F0281E090E090935C02809343
:1053A0005B0280915B02898380915F028A83809196
:1053B000EE01FECD82E390E09093EF018093EE0149
:1053C000F0CF10925C0210925B020ECE0B811C811A
:1053D00040E250E06FEF70E0CE0101960E94462B54
:1053E0002CE434E0ACE9B4E090E080E0AC014E5F46
:1053F0005F4F4132510508F0F7CDF9016591749185
:105400000617170750F4E1E0F0E0EC0FFD1F8E0FD8
:105410009F1FFC0171836083CA01285F3F4FA21761
:10542000B30721F7E1CD2B813C818CE494E0FC01B2
:10543000459154912417350709F4BCC00896F4E04F
:105440008C399F07A1F750CD8B819C810CE414E02F
:10545000F801259134918217930709F4C3C0085FBE
:105460001F4F24E00C39120799F73ECD0E94B80B6C
:10547000BBCD8B81823009F44BC0E0F48823F1F17D
:10548000813009F0B1CD8C811AE07E01B1E2EB0EE2
:10549000F11CF701212F11922A95E9F7B7010E941B
:1054A000EE0C8983F701DE01129601900D921A9598
:1054B000E1F79ACD833009F449C0843009F094CDE6
:1054C0006C818AE0FE013596DE01919601900D9285
:1054D0008A95E1F78FEF683068F4FAE06F9FB001CA
:1054E000112467517E4F4AE050E0CE0181960E9420
:1054F0008F2B80E089830E94580D76CDFE01339674
:105500008EE1DF011D928A95E9F788E08983B6CDA7
:105510006C818AE0FE013596DE01919601900D9234
:105520008A95E1F78FEF683068F43AE0639FB00145
:10553000112467567E4F4AE050E0CE0181960E94CA
:105540008F2B80E089830E94020D4ECD6C812AE072
:10555000CE018196DC01E22F1D92EA95E9F76830D1
:1055600088F4629FB001112467517E4F4AE050E0F9
:105570000E944D2B80E089838AE0FE01B196DE0116
:10558000129675CE8FEFF7CF09BD19BD09B400FE95
:10559000FDCF8091D8008F7D8093D8008091E0006E
:1055A00082608093E0008091E00081FDFCCF0E944A
:1055B000B10D48CC9C012E5F3F4FF90145915491AC
:1055C0004032510508F090CCF90145915491FC010D
:1055D000349665917491CE0102960E943D2B80E035
:1055E000898302CDC8010296FC01259134912D31A9
:1055F000310508F079CCFC0145915491F8013496BD
:1056000085919491BE016B5F7F4F0E943D2B0E945C
:105610009B0BF801369685919491009701F3FC015C
:105620000995DDCF86E290E00E945D2B1B821C82F3
:105630001D8274CEEE0FFF1F0590F491E02D0994AA
:105640006927962769277827872778270895FB01F8
:10565000DC0102C005900D9241505040D8F70895EA
:10566000FB01DC0104C08D910190801921F44150AF
:105670005040C8F7881B990B0895FB01DC0102C05C
:1056800001900D9241505040D8F70895DC0101C0BF
:105690006D9341505040E0F70895DC01CB01FC01CF
:1056A000F999FECF06C0F2BDE1BDF89A319600B47B
:1056B0000D9241505040B8F70895F999FECF92BD30
:1056C00081BDF89A992780B50895A8E1B0E042E03D
:1056D00050E00C944F2B262FF999FECF92BD81BD3F
:1056E000F89A019700B4021639F01FBA20BD0FB620
:1056F000F894FA9AF99A0FBE08950396272F0E94FC
:105700006C2B0E946B2B252F0E946C2B242F0C944A
:105710006C2B0196272F0E946C2B0C946B2BDC01B9
:10572000CB0103C02D910E949A2B41505040D0F7DD
:105730000895262FF999FECF1FBA92BD81BD20BDD5
:105740000FB6F894FA9AF99A0FBE01960895F89454
:10575000FFCFFA08FA080309030905090309030939
:105760000309FA08FA080A09030903090A09A10E3C
:10577000C90E1C0FC90E1C0FFC0E340F1C0F3C1061
:105780004910C517C5172B182B18C518F917F91785
:10579000F917E1184E195F195F1921293C2943298E
:1057A000F427F4277E299029A329E129E629132A41
:0657B000242A362A392AE2
:1057B600FFA4044C0AA304480A440A01AF000101ED
:1057C600C0ED8D24885FD09F818283E200E900EAE4
:1057D60000B500B600B700CD008301CC008A019267
:1057E6000194012102230224022502260227022A0D
:1057F60002B300B4006F007000F4F5F6F7313332EF
:10580600946697C634354022320001DE00AC00AE05
:0658160004C704E70400D2
:00000001FF
